{
	"assignment/Task16.sol": {
		"builtIn2": {
			"abi": [
				{
					"inputs": [
						{
							"internalType": "bytes",
							"name": "encodedData",
							"type": "bytes"
						}
					],
					"name": "decodeData",
					"outputs": [
						{
							"internalType": "uint256",
							"name": "",
							"type": "uint256"
						},
						{
							"internalType": "address",
							"name": "",
							"type": "address"
						},
						{
							"internalType": "bytes32",
							"name": "",
							"type": "bytes32"
						}
					],
					"stateMutability": "pure",
					"type": "function"
				},
				{
					"inputs": [],
					"name": "destroy",
					"outputs": [],
					"stateMutability": "nonpayable",
					"type": "function"
				},
				{
					"inputs": [],
					"name": "getCurrentMiner",
					"outputs": [
						{
							"internalType": "address",
							"name": "",
							"type": "address"
						}
					],
					"stateMutability": "view",
					"type": "function"
				},
				{
					"inputs": [],
					"name": "hash",
					"outputs": [
						{
							"internalType": "bytes32",
							"name": "",
							"type": "bytes32"
						}
					],
					"stateMutability": "view",
					"type": "function"
				},
				{
					"inputs": [],
					"name": "hash256",
					"outputs": [
						{
							"internalType": "bytes32",
							"name": "",
							"type": "bytes32"
						}
					],
					"stateMutability": "view",
					"type": "function"
				},
				{
					"inputs": [
						{
							"internalType": "uint256",
							"name": "x",
							"type": "uint256"
						}
					],
					"name": "myFunction",
					"outputs": [],
					"stateMutability": "nonpayable",
					"type": "function"
				},
				{
					"inputs": [
						{
							"internalType": "uint256",
							"name": "x",
							"type": "uint256"
						}
					],
					"name": "myFunction1",
					"outputs": [],
					"stateMutability": "nonpayable",
					"type": "function"
				},
				{
					"inputs": [],
					"name": "myFunction3",
					"outputs": [],
					"stateMutability": "nonpayable",
					"type": "function"
				},
				{
					"inputs": [
						{
							"internalType": "uint256",
							"name": "x",
							"type": "uint256"
						},
						{
							"internalType": "uint256",
							"name": "y",
							"type": "uint256"
						},
						{
							"internalType": "uint256",
							"name": "k",
							"type": "uint256"
						}
					],
					"name": "myFunction5",
					"outputs": [
						{
							"internalType": "uint256",
							"name": "",
							"type": "uint256"
						}
					],
					"stateMutability": "pure",
					"type": "function"
				},
				{
					"inputs": [
						{
							"internalType": "uint256",
							"name": "x",
							"type": "uint256"
						},
						{
							"internalType": "uint256",
							"name": "y",
							"type": "uint256"
						},
						{
							"internalType": "uint256",
							"name": "k",
							"type": "uint256"
						}
					],
					"name": "myFunction6",
					"outputs": [
						{
							"internalType": "uint256",
							"name": "",
							"type": "uint256"
						}
					],
					"stateMutability": "pure",
					"type": "function"
				},
				{
					"inputs": [
						{
							"internalType": "bytes32",
							"name": "hash",
							"type": "bytes32"
						},
						{
							"internalType": "uint8",
							"name": "v",
							"type": "uint8"
						},
						{
							"internalType": "bytes32",
							"name": "r",
							"type": "bytes32"
						},
						{
							"internalType": "bytes32",
							"name": "s",
							"type": "bytes32"
						}
					],
					"name": "recoverAddress",
					"outputs": [
						{
							"internalType": "address",
							"name": "",
							"type": "address"
						}
					],
					"stateMutability": "pure",
					"type": "function"
				}
			],
			"devdoc": {
				"kind": "dev",
				"methods": {},
				"version": 1
			},
			"evm": {
				"assembly": "    /* \"assignment/Task16.sol\":68:3449  contract builtIn2{... */\n  mstore(0x40, 0x80)\n    /* \"assignment/Task16.sol\":747:780  abi.encodePacked(\"Hello, world!\") */\n  add(0x20, mload(0x40))\n  tag_1\n  swap1\n  tag_2\n  jump\t// in\ntag_1:\n  mload(0x40)\n  0x20\n  dup2\n  dup4\n  sub\n  sub\n  dup2\n  mstore\n  swap1\n  0x40\n  mstore\n    /* \"assignment/Task16.sol\":737:781  keccak256(abi.encodePacked(\"Hello, world!\")) */\n  dup1\n  mload\n  swap1\n  0x20\n  add\n  keccak256\n    /* \"assignment/Task16.sol\":715:781  bytes32 public hash = keccak256(abi.encodePacked(\"Hello, world!\")) */\n  0x00\n  sstore\n    /* \"assignment/Task16.sol\":909:950  sha256(abi.encodePacked(\"Hello, world!\")) */\n  0x02\n    /* \"assignment/Task16.sol\":916:949  abi.encodePacked(\"Hello, world!\") */\n  add(0x20, mload(0x40))\n  tag_3\n  swap1\n  tag_2\n  jump\t// in\ntag_3:\n  mload(0x40)\n  0x20\n  dup2\n  dup4\n  sub\n  sub\n  dup2\n  mstore\n  swap1\n  0x40\n  mstore\n    /* \"assignment/Task16.sol\":909:950  sha256(abi.encodePacked(\"Hello, world!\")) */\n  mload(0x40)\n  tag_4\n  swap2\n  swap1\n  tag_5\n  jump\t// in\ntag_4:\n  0x20\n  mload(0x40)\n  dup1\n  dup4\n  sub\n  dup2\n  dup6\n  gas\n  staticcall\n  iszero\n  dup1\n  iszero\n  tag_7\n  jumpi\n  returndatasize\n  0x00\n  dup1\n  returndatacopy\n  revert(0x00, returndatasize)\ntag_7:\n  pop\n  pop\n  pop\n  mload(0x40)\n  returndatasize\n  not(0x1f)\n  0x1f\n  dup3\n  add\n  and\n  dup3\n  add\n  dup1\n  0x40\n  mstore\n  pop\n  dup2\n  add\n  swap1\n  tag_8\n  swap2\n  swap1\n  tag_9\n  jump\t// in\ntag_8:\n    /* \"assignment/Task16.sol\":884:950  bytes32 public hash256 = sha256(abi.encodePacked(\"Hello, world!\")) */\n  0x01\n  sstore\n    /* \"assignment/Task16.sol\":1945:1948  123 */\n  0x7b\n    /* \"assignment/Task16.sol\":1925:1949  abi.encode(\"Hello\", 123) */\n  add(0x20, mload(0x40))\n  tag_10\n  swap2\n  swap1\n  tag_11\n  jump\t// in\ntag_10:\n  mload(0x40)\n  0x20\n  dup2\n  dup4\n  sub\n  sub\n  dup2\n  mstore\n  swap1\n  0x40\n  mstore\n    /* \"assignment/Task16.sol\":1906:1949  bytes  myBytes12 = abi.encode(\"Hello\", 123) */\n  0x02\n  swap1\n  dup2\n  tag_12\n  swap2\n  swap1\n  tag_13\n  jump\t// in\ntag_12:\n  pop\n    /* \"assignment/Task16.sol\":2074:2120  ripemd160(abi.encodePacked(\"Hello\", \"world!\")) */\n  0x03\n    /* \"assignment/Task16.sol\":2084:2119  abi.encodePacked(\"Hello\", \"world!\") */\n  add(0x20, mload(0x40))\n  tag_14\n  swap1\n  tag_15\n  jump\t// in\ntag_14:\n  mload(0x40)\n  0x20\n  dup2\n  dup4\n  sub\n  sub\n  dup2\n  mstore\n  swap1\n  0x40\n  mstore\n    /* \"assignment/Task16.sol\":2074:2120  ripemd160(abi.encodePacked(\"Hello\", \"world!\")) */\n  mload(0x40)\n  tag_16\n  swap2\n  swap1\n  tag_5\n  jump\t// in\ntag_16:\n  0x20\n  mload(0x40)\n  dup1\n  dup4\n  sub\n  dup2\n  dup6\n  gas\n  staticcall\n  iszero\n  dup1\n  iszero\n  tag_18\n  jumpi\n  returndatasize\n  0x00\n  dup1\n  returndatacopy\n  revert(0x00, returndatasize)\ntag_18:\n  pop\n  pop\n  pop\n  shl(0x60, mload(mload(0x40)))\n    /* \"assignment/Task16.sol\":2057:2120  bytes20 hash22 = ripemd160(abi.encodePacked(\"Hello\", \"world!\")) */\n  0x03\n  exp(0x0100, 0x00)\n  dup2\n  sload\n  dup2\n  0xffffffffffffffffffffffffffffffffffffffff\n  mul\n  not\n  and\n  swap1\n  dup4\n  0x60\n  shr\n  mul\n  or\n  swap1\n  sstore\n  pop\n    /* \"assignment/Task16.sol\":3013:3014  1 */\n  0x01\n    /* \"assignment/Task16.sol\":2998:3010  block.number */\n  number\n    /* \"assignment/Task16.sol\":2998:3014  block.number - 1 */\n  tag_19\n  swap2\n  swap1\n  tag_20\n  jump\t// in\ntag_19:\n    /* \"assignment/Task16.sol\":2988:3015  blockhash(block.number - 1) */\n  blockhash\n    /* \"assignment/Task16.sol\":2971:3015  bytes32 hash45 = blockhash(block.number - 1) */\n  0x04\n  sstore\n    /* \"assignment/Task16.sol\":3404:3436  keccak256(\"myFunction(uint256)\") */\n  0x50628c969c386d878aac8a993492e42110c19ba346d377fec055d2d56124b695\n    /* \"assignment/Task16.sol\":3439:3442  123 */\n  0x7b\n    /* \"assignment/Task16.sol\":3374:3443  abi.encodeWithSelector(bytes4(keccak256(\"myFunction(uint256)\")), 123) */\n  add(0x24, mload(0x40))\n  tag_21\n  swap2\n  swap1\n  tag_22\n  jump\t// in\ntag_21:\n  mload(0x40)\n  0x20\n  dup2\n  dup4\n  sub\n  sub\n  dup2\n  mstore\n  swap1\n  0x40\n  mstore\n  swap1\n  not(0xffffffffffffffffffffffffffffffffffffffffffffffffffffffff)\n  and\n  0x20\n  dup3\n  add\n  dup1\n  mload\n  0xffffffffffffffffffffffffffffffffffffffffffffffffffffffff\n  dup4\n  dup2\n  dup4\n  and\n  or\n  dup4\n  mstore\n  pop\n  pop\n  pop\n  pop\n    /* \"assignment/Task16.sol\":3359:3443  bytes myData = abi.encodeWithSelector(bytes4(keccak256(\"myFunction(uint256)\")), 123) */\n  0x05\n  swap1\n  dup2\n  tag_23\n  swap2\n  swap1\n  tag_13\n  jump\t// in\ntag_23:\n  pop\n    /* \"assignment/Task16.sol\":68:3449  contract builtIn2{... */\n  callvalue\n  dup1\n  iszero\n  tag_24\n  jumpi\n  0x00\n  dup1\n  revert\ntag_24:\n  pop\n  jump(tag_25)\n    /* \"#utility.yul\":7:155   */\ntag_26:\n    /* \"#utility.yul\":109:120   */\n  0x00\n    /* \"#utility.yul\":146:149   */\n  dup2\n    /* \"#utility.yul\":131:149   */\n  swap1\n  pop\n    /* \"#utility.yul\":7:155   */\n  swap3\n  swap2\n  pop\n  pop\n  jump\t// out\n    /* \"#utility.yul\":161:324   */\ntag_27:\n    /* \"#utility.yul\":301:316   */\n  0x48656c6c6f2c20776f726c642100000000000000000000000000000000000000\n    /* \"#utility.yul\":297:298   */\n  0x00\n    /* \"#utility.yul\":289:295   */\n  dup3\n    /* \"#utility.yul\":285:299   */\n  add\n    /* \"#utility.yul\":278:317   */\n  mstore\n    /* \"#utility.yul\":161:324   */\n  pop\n  jump\t// out\n    /* \"#utility.yul\":330:732   */\ntag_28:\n    /* \"#utility.yul\":490:493   */\n  0x00\n    /* \"#utility.yul\":511:596   */\n  tag_73\n    /* \"#utility.yul\":593:595   */\n  0x0d\n    /* \"#utility.yul\":588:591   */\n  dup4\n    /* \"#utility.yul\":511:596   */\n  tag_26\n  jump\t// in\ntag_73:\n    /* \"#utility.yul\":504:596   */\n  swap2\n  pop\n    /* \"#utility.yul\":605:698   */\n  tag_74\n    /* \"#utility.yul\":694:697   */\n  dup3\n    /* \"#utility.yul\":605:698   */\n  tag_27\n  jump\t// in\ntag_74:\n    /* \"#utility.yul\":723:725   */\n  0x0d\n    /* \"#utility.yul\":718:721   */\n  dup3\n    /* \"#utility.yul\":714:726   */\n  add\n    /* \"#utility.yul\":707:726   */\n  swap1\n  pop\n    /* \"#utility.yul\":330:732   */\n  swap2\n  swap1\n  pop\n  jump\t// out\n    /* \"#utility.yul\":738:1119   */\ntag_2:\n    /* \"#utility.yul\":923:926   */\n  0x00\n    /* \"#utility.yul\":945:1093   */\n  tag_76\n    /* \"#utility.yul\":1089:1092   */\n  dup3\n    /* \"#utility.yul\":945:1093   */\n  tag_28\n  jump\t// in\ntag_76:\n    /* \"#utility.yul\":938:1093   */\n  swap2\n  pop\n    /* \"#utility.yul\":1110:1113   */\n  dup2\n    /* \"#utility.yul\":1103:1113   */\n  swap1\n  pop\n    /* \"#utility.yul\":738:1119   */\n  swap2\n  swap1\n  pop\n  jump\t// out\n    /* \"#utility.yul\":1125:1223   */\ntag_29:\n    /* \"#utility.yul\":1176:1182   */\n  0x00\n    /* \"#utility.yul\":1210:1215   */\n  dup2\n    /* \"#utility.yul\":1204:1216   */\n  mload\n    /* \"#utility.yul\":1194:1216   */\n  swap1\n  pop\n    /* \"#utility.yul\":1125:1223   */\n  swap2\n  swap1\n  pop\n  jump\t// out\n    /* \"#utility.yul\":1229:1376   */\ntag_30:\n    /* \"#utility.yul\":1330:1341   */\n  0x00\n    /* \"#utility.yul\":1367:1370   */\n  dup2\n    /* \"#utility.yul\":1352:1370   */\n  swap1\n  pop\n    /* \"#utility.yul\":1229:1376   */\n  swap3\n  swap2\n  pop\n  pop\n  jump\t// out\n    /* \"#utility.yul\":1382:1628   */\ntag_31:\n    /* \"#utility.yul\":1463:1464   */\n  0x00\n    /* \"#utility.yul\":1473:1586   */\ntag_80:\n    /* \"#utility.yul\":1487:1493   */\n  dup4\n    /* \"#utility.yul\":1484:1485   */\n  dup2\n    /* \"#utility.yul\":1481:1494   */\n  lt\n    /* \"#utility.yul\":1473:1586   */\n  iszero\n  tag_82\n  jumpi\n    /* \"#utility.yul\":1572:1573   */\n  dup1\n    /* \"#utility.yul\":1567:1570   */\n  dup3\n    /* \"#utility.yul\":1563:1574   */\n  add\n    /* \"#utility.yul\":1557:1575   */\n  mload\n    /* \"#utility.yul\":1553:1554   */\n  dup2\n    /* \"#utility.yul\":1548:1551   */\n  dup5\n    /* \"#utility.yul\":1544:1555   */\n  add\n    /* \"#utility.yul\":1537:1576   */\n  mstore\n    /* \"#utility.yul\":1509:1511   */\n  0x20\n    /* \"#utility.yul\":1506:1507   */\n  dup2\n    /* \"#utility.yul\":1502:1512   */\n  add\n    /* \"#utility.yul\":1497:1512   */\n  swap1\n  pop\n    /* \"#utility.yul\":1473:1586   */\n  jump(tag_80)\ntag_82:\n    /* \"#utility.yul\":1620:1621   */\n  0x00\n    /* \"#utility.yul\":1611:1617   */\n  dup5\n    /* \"#utility.yul\":1606:1609   */\n  dup5\n    /* \"#utility.yul\":1602:1618   */\n  add\n    /* \"#utility.yul\":1595:1622   */\n  mstore\n    /* \"#utility.yul\":1444:1628   */\n  pop\n    /* \"#utility.yul\":1382:1628   */\n  pop\n  pop\n  pop\n  jump\t// out\n    /* \"#utility.yul\":1634:2020   */\ntag_32:\n    /* \"#utility.yul\":1738:1741   */\n  0x00\n    /* \"#utility.yul\":1766:1804   */\n  tag_84\n    /* \"#utility.yul\":1798:1803   */\n  dup3\n    /* \"#utility.yul\":1766:1804   */\n  tag_29\n  jump\t// in\ntag_84:\n    /* \"#utility.yul\":1820:1908   */\n  tag_85\n    /* \"#utility.yul\":1901:1907   */\n  dup2\n    /* \"#utility.yul\":1896:1899   */\n  dup6\n    /* \"#utility.yul\":1820:1908   */\n  tag_30\n  jump\t// in\ntag_85:\n    /* \"#utility.yul\":1813:1908   */\n  swap4\n  pop\n    /* \"#utility.yul\":1917:1982   */\n  tag_86\n    /* \"#utility.yul\":1975:1981   */\n  dup2\n    /* \"#utility.yul\":1970:1973   */\n  dup6\n    /* \"#utility.yul\":1963:1967   */\n  0x20\n    /* \"#utility.yul\":1956:1961   */\n  dup7\n    /* \"#utility.yul\":1952:1968   */\n  add\n    /* \"#utility.yul\":1917:1982   */\n  tag_31\n  jump\t// in\ntag_86:\n    /* \"#utility.yul\":2007:2013   */\n  dup1\n    /* \"#utility.yul\":2002:2005   */\n  dup5\n    /* \"#utility.yul\":1998:2014   */\n  add\n    /* \"#utility.yul\":1991:2014   */\n  swap2\n  pop\n    /* \"#utility.yul\":1742:2020   */\n  pop\n    /* \"#utility.yul\":1634:2020   */\n  swap3\n  swap2\n  pop\n  pop\n  jump\t// out\n    /* \"#utility.yul\":2026:2297   */\ntag_5:\n    /* \"#utility.yul\":2156:2159   */\n  0x00\n    /* \"#utility.yul\":2178:2271   */\n  tag_88\n    /* \"#utility.yul\":2267:2270   */\n  dup3\n    /* \"#utility.yul\":2258:2264   */\n  dup5\n    /* \"#utility.yul\":2178:2271   */\n  tag_32\n  jump\t// in\ntag_88:\n    /* \"#utility.yul\":2171:2271   */\n  swap2\n  pop\n    /* \"#utility.yul\":2288:2291   */\n  dup2\n    /* \"#utility.yul\":2281:2291   */\n  swap1\n  pop\n    /* \"#utility.yul\":2026:2297   */\n  swap3\n  swap2\n  pop\n  pop\n  jump\t// out\n    /* \"#utility.yul\":2384:2501   */\ntag_34:\n    /* \"#utility.yul\":2493:2494   */\n  0x00\n    /* \"#utility.yul\":2490:2491   */\n  dup1\n    /* \"#utility.yul\":2483:2495   */\n  revert\n    /* \"#utility.yul\":2630:2707   */\ntag_36:\n    /* \"#utility.yul\":2667:2674   */\n  0x00\n    /* \"#utility.yul\":2696:2701   */\n  dup2\n    /* \"#utility.yul\":2685:2701   */\n  swap1\n  pop\n    /* \"#utility.yul\":2630:2707   */\n  swap2\n  swap1\n  pop\n  jump\t// out\n    /* \"#utility.yul\":2713:2835   */\ntag_37:\n    /* \"#utility.yul\":2786:2810   */\n  tag_94\n    /* \"#utility.yul\":2804:2809   */\n  dup2\n    /* \"#utility.yul\":2786:2810   */\n  tag_36\n  jump\t// in\ntag_94:\n    /* \"#utility.yul\":2779:2784   */\n  dup2\n    /* \"#utility.yul\":2776:2811   */\n  eq\n    /* \"#utility.yul\":2766:2829   */\n  tag_95\n  jumpi\n    /* \"#utility.yul\":2825:2826   */\n  0x00\n    /* \"#utility.yul\":2822:2823   */\n  dup1\n    /* \"#utility.yul\":2815:2827   */\n  revert\n    /* \"#utility.yul\":2766:2829   */\ntag_95:\n    /* \"#utility.yul\":2713:2835   */\n  pop\n  jump\t// out\n    /* \"#utility.yul\":2841:2984   */\ntag_38:\n    /* \"#utility.yul\":2898:2903   */\n  0x00\n    /* \"#utility.yul\":2929:2935   */\n  dup2\n    /* \"#utility.yul\":2923:2936   */\n  mload\n    /* \"#utility.yul\":2914:2936   */\n  swap1\n  pop\n    /* \"#utility.yul\":2945:2978   */\n  tag_97\n    /* \"#utility.yul\":2972:2977   */\n  dup2\n    /* \"#utility.yul\":2945:2978   */\n  tag_37\n  jump\t// in\ntag_97:\n    /* \"#utility.yul\":2841:2984   */\n  swap3\n  swap2\n  pop\n  pop\n  jump\t// out\n    /* \"#utility.yul\":2990:3341   */\ntag_9:\n    /* \"#utility.yul\":3060:3066   */\n  0x00\n    /* \"#utility.yul\":3109:3111   */\n  0x20\n    /* \"#utility.yul\":3097:3106   */\n  dup3\n    /* \"#utility.yul\":3088:3095   */\n  dup5\n    /* \"#utility.yul\":3084:3107   */\n  sub\n    /* \"#utility.yul\":3080:3112   */\n  slt\n    /* \"#utility.yul\":3077:3196   */\n  iszero\n  tag_99\n  jumpi\n    /* \"#utility.yul\":3115:3194   */\n  tag_100\n  tag_34\n  jump\t// in\ntag_100:\n    /* \"#utility.yul\":3077:3196   */\ntag_99:\n    /* \"#utility.yul\":3235:3236   */\n  0x00\n    /* \"#utility.yul\":3260:3324   */\n  tag_101\n    /* \"#utility.yul\":3316:3323   */\n  dup5\n    /* \"#utility.yul\":3307:3313   */\n  dup3\n    /* \"#utility.yul\":3296:3305   */\n  dup6\n    /* \"#utility.yul\":3292:3314   */\n  add\n    /* \"#utility.yul\":3260:3324   */\n  tag_38\n  jump\t// in\ntag_101:\n    /* \"#utility.yul\":3250:3324   */\n  swap2\n  pop\n    /* \"#utility.yul\":3206:3334   */\n  pop\n    /* \"#utility.yul\":2990:3341   */\n  swap3\n  swap2\n  pop\n  pop\n  jump\t// out\n    /* \"#utility.yul\":3347:3516   */\ntag_39:\n    /* \"#utility.yul\":3431:3442   */\n  0x00\n    /* \"#utility.yul\":3465:3471   */\n  dup3\n    /* \"#utility.yul\":3460:3463   */\n  dup3\n    /* \"#utility.yul\":3453:3472   */\n  mstore\n    /* \"#utility.yul\":3505:3509   */\n  0x20\n    /* \"#utility.yul\":3500:3503   */\n  dup3\n    /* \"#utility.yul\":3496:3510   */\n  add\n    /* \"#utility.yul\":3481:3510   */\n  swap1\n  pop\n    /* \"#utility.yul\":3347:3516   */\n  swap3\n  swap2\n  pop\n  pop\n  jump\t// out\n    /* \"#utility.yul\":3522:3677   */\ntag_40:\n    /* \"#utility.yul\":3662:3669   */\n  0x48656c6c6f000000000000000000000000000000000000000000000000000000\n    /* \"#utility.yul\":3658:3659   */\n  0x00\n    /* \"#utility.yul\":3650:3656   */\n  dup3\n    /* \"#utility.yul\":3646:3660   */\n  add\n    /* \"#utility.yul\":3639:3670   */\n  mstore\n    /* \"#utility.yul\":3522:3677   */\n  pop\n  jump\t// out\n    /* \"#utility.yul\":3683:4048   */\ntag_41:\n    /* \"#utility.yul\":3825:3828   */\n  0x00\n    /* \"#utility.yul\":3846:3912   */\n  tag_105\n    /* \"#utility.yul\":3910:3911   */\n  0x05\n    /* \"#utility.yul\":3905:3908   */\n  dup4\n    /* \"#utility.yul\":3846:3912   */\n  tag_39\n  jump\t// in\ntag_105:\n    /* \"#utility.yul\":3839:3912   */\n  swap2\n  pop\n    /* \"#utility.yul\":3921:4014   */\n  tag_106\n    /* \"#utility.yul\":4010:4013   */\n  dup3\n    /* \"#utility.yul\":3921:4014   */\n  tag_40\n  jump\t// in\ntag_106:\n    /* \"#utility.yul\":4039:4041   */\n  0x20\n    /* \"#utility.yul\":4034:4037   */\n  dup3\n    /* \"#utility.yul\":4030:4042   */\n  add\n    /* \"#utility.yul\":4023:4042   */\n  swap1\n  pop\n    /* \"#utility.yul\":3683:4048   */\n  swap2\n  swap1\n  pop\n  jump\t// out\n    /* \"#utility.yul\":4054:4141   */\ntag_42:\n    /* \"#utility.yul\":4101:4108   */\n  0x00\n    /* \"#utility.yul\":4130:4135   */\n  dup2\n    /* \"#utility.yul\":4119:4135   */\n  swap1\n  pop\n    /* \"#utility.yul\":4054:4141   */\n  swap2\n  swap1\n  pop\n  jump\t// out\n    /* \"#utility.yul\":4147:4233   */\ntag_43:\n    /* \"#utility.yul\":4182:4189   */\n  0x00\n    /* \"#utility.yul\":4222:4226   */\n  0xff\n    /* \"#utility.yul\":4215:4220   */\n  dup3\n    /* \"#utility.yul\":4211:4227   */\n  and\n    /* \"#utility.yul\":4200:4227   */\n  swap1\n  pop\n    /* \"#utility.yul\":4147:4233   */\n  swap2\n  swap1\n  pop\n  jump\t// out\n    /* \"#utility.yul\":4239:4299   */\ntag_44:\n    /* \"#utility.yul\":4267:4270   */\n  0x00\n    /* \"#utility.yul\":4288:4293   */\n  dup2\n    /* \"#utility.yul\":4281:4293   */\n  swap1\n  pop\n    /* \"#utility.yul\":4239:4299   */\n  swap2\n  swap1\n  pop\n  jump\t// out\n    /* \"#utility.yul\":4305:4463   */\ntag_45:\n    /* \"#utility.yul\":4363:4372   */\n  0x00\n    /* \"#utility.yul\":4396:4457   */\n  tag_111\n    /* \"#utility.yul\":4412:4456   */\n  tag_112\n    /* \"#utility.yul\":4421:4455   */\n  tag_113\n    /* \"#utility.yul\":4449:4454   */\n  dup5\n    /* \"#utility.yul\":4421:4455   */\n  tag_42\n  jump\t// in\ntag_113:\n    /* \"#utility.yul\":4412:4456   */\n  tag_44\n  jump\t// in\ntag_112:\n    /* \"#utility.yul\":4396:4457   */\n  tag_43\n  jump\t// in\ntag_111:\n    /* \"#utility.yul\":4383:4457   */\n  swap1\n  pop\n    /* \"#utility.yul\":4305:4463   */\n  swap2\n  swap1\n  pop\n  jump\t// out\n    /* \"#utility.yul\":4469:4616   */\ntag_46:\n    /* \"#utility.yul\":4564:4609   */\n  tag_115\n    /* \"#utility.yul\":4603:4608   */\n  dup2\n    /* \"#utility.yul\":4564:4609   */\n  tag_45\n  jump\t// in\ntag_115:\n    /* \"#utility.yul\":4559:4562   */\n  dup3\n    /* \"#utility.yul\":4552:4610   */\n  mstore\n    /* \"#utility.yul\":4469:4616   */\n  pop\n  pop\n  jump\t// out\n    /* \"#utility.yul\":4622:5167   */\ntag_11:\n    /* \"#utility.yul\":4824:4828   */\n  0x00\n    /* \"#utility.yul\":4862:4864   */\n  0x40\n    /* \"#utility.yul\":4851:4860   */\n  dup3\n    /* \"#utility.yul\":4847:4865   */\n  add\n    /* \"#utility.yul\":4839:4865   */\n  swap1\n  pop\n    /* \"#utility.yul\":4911:4920   */\n  dup2\n    /* \"#utility.yul\":4905:4909   */\n  dup2\n    /* \"#utility.yul\":4901:4921   */\n  sub\n    /* \"#utility.yul\":4897:4898   */\n  0x00\n    /* \"#utility.yul\":4886:4895   */\n  dup4\n    /* \"#utility.yul\":4882:4899   */\n  add\n    /* \"#utility.yul\":4875:4922   */\n  mstore\n    /* \"#utility.yul\":4939:5070   */\n  tag_117\n    /* \"#utility.yul\":5065:5069   */\n  dup2\n    /* \"#utility.yul\":4939:5070   */\n  tag_41\n  jump\t// in\ntag_117:\n    /* \"#utility.yul\":4931:5070   */\n  swap1\n  pop\n    /* \"#utility.yul\":5080:5160   */\n  tag_118\n    /* \"#utility.yul\":5156:5158   */\n  0x20\n    /* \"#utility.yul\":5145:5154   */\n  dup4\n    /* \"#utility.yul\":5141:5159   */\n  add\n    /* \"#utility.yul\":5132:5138   */\n  dup5\n    /* \"#utility.yul\":5080:5160   */\n  tag_46\n  jump\t// in\ntag_118:\n    /* \"#utility.yul\":4622:5167   */\n  swap3\n  swap2\n  pop\n  pop\n  jump\t// out\n    /* \"#utility.yul\":5173:5353   */\ntag_47:\n    /* \"#utility.yul\":5221:5298   */\n  0x4e487b7100000000000000000000000000000000000000000000000000000000\n    /* \"#utility.yul\":5218:5219   */\n  0x00\n    /* \"#utility.yul\":5211:5299   */\n  mstore\n    /* \"#utility.yul\":5318:5322   */\n  0x41\n    /* \"#utility.yul\":5315:5316   */\n  0x04\n    /* \"#utility.yul\":5308:5323   */\n  mstore\n    /* \"#utility.yul\":5342:5346   */\n  0x24\n    /* \"#utility.yul\":5339:5340   */\n  0x00\n    /* \"#utility.yul\":5332:5347   */\n  revert\n    /* \"#utility.yul\":5359:5539   */\ntag_48:\n    /* \"#utility.yul\":5407:5484   */\n  0x4e487b7100000000000000000000000000000000000000000000000000000000\n    /* \"#utility.yul\":5404:5405   */\n  0x00\n    /* \"#utility.yul\":5397:5485   */\n  mstore\n    /* \"#utility.yul\":5504:5508   */\n  0x22\n    /* \"#utility.yul\":5501:5502   */\n  0x04\n    /* \"#utility.yul\":5494:5509   */\n  mstore\n    /* \"#utility.yul\":5528:5532   */\n  0x24\n    /* \"#utility.yul\":5525:5526   */\n  0x00\n    /* \"#utility.yul\":5518:5533   */\n  revert\n    /* \"#utility.yul\":5545:5865   */\ntag_49:\n    /* \"#utility.yul\":5589:5595   */\n  0x00\n    /* \"#utility.yul\":5626:5627   */\n  0x02\n    /* \"#utility.yul\":5620:5624   */\n  dup3\n    /* \"#utility.yul\":5616:5628   */\n  div\n    /* \"#utility.yul\":5606:5628   */\n  swap1\n  pop\n    /* \"#utility.yul\":5673:5674   */\n  0x01\n    /* \"#utility.yul\":5667:5671   */\n  dup3\n    /* \"#utility.yul\":5663:5675   */\n  and\n    /* \"#utility.yul\":5694:5712   */\n  dup1\n    /* \"#utility.yul\":5684:5765   */\n  tag_122\n  jumpi\n    /* \"#utility.yul\":5750:5754   */\n  0x7f\n    /* \"#utility.yul\":5742:5748   */\n  dup3\n    /* \"#utility.yul\":5738:5755   */\n  and\n    /* \"#utility.yul\":5728:5755   */\n  swap2\n  pop\n    /* \"#utility.yul\":5684:5765   */\ntag_122:\n    /* \"#utility.yul\":5812:5814   */\n  0x20\n    /* \"#utility.yul\":5804:5810   */\n  dup3\n    /* \"#utility.yul\":5801:5815   */\n  lt\n    /* \"#utility.yul\":5781:5799   */\n  dup2\n    /* \"#utility.yul\":5778:5816   */\n  sub\n    /* \"#utility.yul\":5775:5859   */\n  tag_123\n  jumpi\n    /* \"#utility.yul\":5831:5849   */\n  tag_124\n  tag_48\n  jump\t// in\ntag_124:\n    /* \"#utility.yul\":5775:5859   */\ntag_123:\n    /* \"#utility.yul\":5596:5865   */\n  pop\n    /* \"#utility.yul\":5545:5865   */\n  swap2\n  swap1\n  pop\n  jump\t// out\n    /* \"#utility.yul\":5871:6011   */\ntag_50:\n    /* \"#utility.yul\":5919:5923   */\n  0x00\n    /* \"#utility.yul\":5942:5945   */\n  dup2\n    /* \"#utility.yul\":5934:5945   */\n  swap1\n  pop\n    /* \"#utility.yul\":5965:5968   */\n  dup2\n    /* \"#utility.yul\":5962:5963   */\n  0x00\n    /* \"#utility.yul\":5955:5969   */\n  mstore\n    /* \"#utility.yul\":5999:6003   */\n  0x20\n    /* \"#utility.yul\":5996:5997   */\n  0x00\n    /* \"#utility.yul\":5986:6004   */\n  keccak256\n    /* \"#utility.yul\":5978:6004   */\n  swap1\n  pop\n    /* \"#utility.yul\":5871:6011   */\n  swap2\n  swap1\n  pop\n  jump\t// out\n    /* \"#utility.yul\":6017:6110   */\ntag_51:\n    /* \"#utility.yul\":6054:6060   */\n  0x00\n    /* \"#utility.yul\":6101:6103   */\n  0x20\n    /* \"#utility.yul\":6096:6098   */\n  0x1f\n    /* \"#utility.yul\":6089:6094   */\n  dup4\n    /* \"#utility.yul\":6085:6099   */\n  add\n    /* \"#utility.yul\":6081:6104   */\n  div\n    /* \"#utility.yul\":6071:6104   */\n  swap1\n  pop\n    /* \"#utility.yul\":6017:6110   */\n  swap2\n  swap1\n  pop\n  jump\t// out\n    /* \"#utility.yul\":6116:6223   */\ntag_52:\n    /* \"#utility.yul\":6160:6168   */\n  0x00\n    /* \"#utility.yul\":6210:6215   */\n  dup3\n    /* \"#utility.yul\":6204:6208   */\n  dup3\n    /* \"#utility.yul\":6200:6216   */\n  shl\n    /* \"#utility.yul\":6179:6216   */\n  swap1\n  pop\n    /* \"#utility.yul\":6116:6223   */\n  swap3\n  swap2\n  pop\n  pop\n  jump\t// out\n    /* \"#utility.yul\":6229:6622   */\ntag_53:\n    /* \"#utility.yul\":6298:6304   */\n  0x00\n    /* \"#utility.yul\":6348:6349   */\n  0x08\n    /* \"#utility.yul\":6336:6346   */\n  dup4\n    /* \"#utility.yul\":6332:6350   */\n  mul\n    /* \"#utility.yul\":6371:6468   */\n  tag_129\n    /* \"#utility.yul\":6401:6467   */\n  0xffffffffffffffffffffffffffffffffffffffffffffffffffffffffffffffff\n    /* \"#utility.yul\":6390:6399   */\n  dup3\n    /* \"#utility.yul\":6371:6468   */\n  tag_52\n  jump\t// in\ntag_129:\n    /* \"#utility.yul\":6489:6528   */\n  tag_130\n    /* \"#utility.yul\":6519:6527   */\n  dup7\n    /* \"#utility.yul\":6508:6517   */\n  dup4\n    /* \"#utility.yul\":6489:6528   */\n  tag_52\n  jump\t// in\ntag_130:\n    /* \"#utility.yul\":6477:6528   */\n  swap6\n  pop\n    /* \"#utility.yul\":6561:6565   */\n  dup1\n    /* \"#utility.yul\":6557:6566   */\n  not\n    /* \"#utility.yul\":6550:6555   */\n  dup5\n    /* \"#utility.yul\":6546:6567   */\n  and\n    /* \"#utility.yul\":6537:6567   */\n  swap4\n  pop\n    /* \"#utility.yul\":6610:6614   */\n  dup1\n    /* \"#utility.yul\":6600:6608   */\n  dup7\n    /* \"#utility.yul\":6596:6615   */\n  and\n    /* \"#utility.yul\":6589:6594   */\n  dup5\n    /* \"#utility.yul\":6586:6616   */\n  or\n    /* \"#utility.yul\":6576:6616   */\n  swap3\n  pop\n    /* \"#utility.yul\":6305:6622   */\n  pop\n  pop\n    /* \"#utility.yul\":6229:6622   */\n  swap4\n  swap3\n  pop\n  pop\n  pop\n  jump\t// out\n    /* \"#utility.yul\":6628:6705   */\ntag_54:\n    /* \"#utility.yul\":6665:6672   */\n  0x00\n    /* \"#utility.yul\":6694:6699   */\n  dup2\n    /* \"#utility.yul\":6683:6699   */\n  swap1\n  pop\n    /* \"#utility.yul\":6628:6705   */\n  swap2\n  swap1\n  pop\n  jump\t// out\n    /* \"#utility.yul\":6711:6853   */\ntag_55:\n    /* \"#utility.yul\":6761:6770   */\n  0x00\n    /* \"#utility.yul\":6794:6847   */\n  tag_133\n    /* \"#utility.yul\":6812:6846   */\n  tag_134\n    /* \"#utility.yul\":6821:6845   */\n  tag_135\n    /* \"#utility.yul\":6839:6844   */\n  dup5\n    /* \"#utility.yul\":6821:6845   */\n  tag_54\n  jump\t// in\ntag_135:\n    /* \"#utility.yul\":6812:6846   */\n  tag_44\n  jump\t// in\ntag_134:\n    /* \"#utility.yul\":6794:6847   */\n  tag_54\n  jump\t// in\ntag_133:\n    /* \"#utility.yul\":6781:6847   */\n  swap1\n  pop\n    /* \"#utility.yul\":6711:6853   */\n  swap2\n  swap1\n  pop\n  jump\t// out\n    /* \"#utility.yul\":6859:6934   */\ntag_56:\n    /* \"#utility.yul\":6902:6905   */\n  0x00\n    /* \"#utility.yul\":6923:6928   */\n  dup2\n    /* \"#utility.yul\":6916:6928   */\n  swap1\n  pop\n    /* \"#utility.yul\":6859:6934   */\n  swap2\n  swap1\n  pop\n  jump\t// out\n    /* \"#utility.yul\":6940:7209   */\ntag_57:\n    /* \"#utility.yul\":7050:7089   */\n  tag_138\n    /* \"#utility.yul\":7081:7088   */\n  dup4\n    /* \"#utility.yul\":7050:7089   */\n  tag_55\n  jump\t// in\ntag_138:\n    /* \"#utility.yul\":7111:7202   */\n  tag_139\n    /* \"#utility.yul\":7160:7201   */\n  tag_140\n    /* \"#utility.yul\":7184:7200   */\n  dup3\n    /* \"#utility.yul\":7160:7201   */\n  tag_56\n  jump\t// in\ntag_140:\n    /* \"#utility.yul\":7152:7158   */\n  dup5\n    /* \"#utility.yul\":7145:7149   */\n  dup5\n    /* \"#utility.yul\":7139:7150   */\n  sload\n    /* \"#utility.yul\":7111:7202   */\n  tag_53\n  jump\t// in\ntag_139:\n    /* \"#utility.yul\":7105:7109   */\n  dup3\n    /* \"#utility.yul\":7098:7203   */\n  sstore\n    /* \"#utility.yul\":7016:7209   */\n  pop\n    /* \"#utility.yul\":6940:7209   */\n  pop\n  pop\n  pop\n  jump\t// out\n    /* \"#utility.yul\":7215:7288   */\ntag_58:\n    /* \"#utility.yul\":7260:7263   */\n  0x00\n    /* \"#utility.yul\":7215:7288   */\n  swap1\n  jump\t// out\n    /* \"#utility.yul\":7294:7483   */\ntag_59:\n    /* \"#utility.yul\":7371:7403   */\n  tag_143\n  tag_58\n  jump\t// in\ntag_143:\n    /* \"#utility.yul\":7412:7477   */\n  tag_144\n    /* \"#utility.yul\":7470:7476   */\n  dup2\n    /* \"#utility.yul\":7462:7468   */\n  dup5\n    /* \"#utility.yul\":7456:7460   */\n  dup5\n    /* \"#utility.yul\":7412:7477   */\n  tag_57\n  jump\t// in\ntag_144:\n    /* \"#utility.yul\":7347:7483   */\n  pop\n    /* \"#utility.yul\":7294:7483   */\n  pop\n  pop\n  jump\t// out\n    /* \"#utility.yul\":7489:7675   */\ntag_60:\n    /* \"#utility.yul\":7549:7669   */\ntag_146:\n    /* \"#utility.yul\":7566:7569   */\n  dup2\n    /* \"#utility.yul\":7559:7564   */\n  dup2\n    /* \"#utility.yul\":7556:7570   */\n  lt\n    /* \"#utility.yul\":7549:7669   */\n  iszero\n  tag_148\n  jumpi\n    /* \"#utility.yul\":7620:7659   */\n  tag_149\n    /* \"#utility.yul\":7657:7658   */\n  0x00\n    /* \"#utility.yul\":7650:7655   */\n  dup3\n    /* \"#utility.yul\":7620:7659   */\n  tag_59\n  jump\t// in\ntag_149:\n    /* \"#utility.yul\":7593:7594   */\n  0x01\n    /* \"#utility.yul\":7586:7591   */\n  dup2\n    /* \"#utility.yul\":7582:7595   */\n  add\n    /* \"#utility.yul\":7573:7595   */\n  swap1\n  pop\n    /* \"#utility.yul\":7549:7669   */\n  jump(tag_146)\ntag_148:\n    /* \"#utility.yul\":7489:7675   */\n  pop\n  pop\n  jump\t// out\n    /* \"#utility.yul\":7681:8222   */\ntag_61:\n    /* \"#utility.yul\":7781:7783   */\n  0x1f\n    /* \"#utility.yul\":7776:7779   */\n  dup3\n    /* \"#utility.yul\":7773:7784   */\n  gt\n    /* \"#utility.yul\":7770:8215   */\n  iszero\n  tag_151\n  jumpi\n    /* \"#utility.yul\":7815:7852   */\n  tag_152\n    /* \"#utility.yul\":7846:7851   */\n  dup2\n    /* \"#utility.yul\":7815:7852   */\n  tag_50\n  jump\t// in\ntag_152:\n    /* \"#utility.yul\":7898:7927   */\n  tag_153\n    /* \"#utility.yul\":7916:7926   */\n  dup5\n    /* \"#utility.yul\":7898:7927   */\n  tag_51\n  jump\t// in\ntag_153:\n    /* \"#utility.yul\":7888:7896   */\n  dup2\n    /* \"#utility.yul\":7884:7928   */\n  add\n    /* \"#utility.yul\":8081:8083   */\n  0x20\n    /* \"#utility.yul\":8069:8079   */\n  dup6\n    /* \"#utility.yul\":8066:8084   */\n  lt\n    /* \"#utility.yul\":8063:8112   */\n  iszero\n  tag_154\n  jumpi\n    /* \"#utility.yul\":8102:8110   */\n  dup2\n    /* \"#utility.yul\":8087:8110   */\n  swap1\n  pop\n    /* \"#utility.yul\":8063:8112   */\ntag_154:\n    /* \"#utility.yul\":8125:8205   */\n  tag_155\n    /* \"#utility.yul\":8181:8203   */\n  tag_156\n    /* \"#utility.yul\":8199:8202   */\n  dup6\n    /* \"#utility.yul\":8181:8203   */\n  tag_51\n  jump\t// in\ntag_156:\n    /* \"#utility.yul\":8171:8179   */\n  dup4\n    /* \"#utility.yul\":8167:8204   */\n  add\n    /* \"#utility.yul\":8154:8165   */\n  dup3\n    /* \"#utility.yul\":8125:8205   */\n  tag_60\n  jump\t// in\ntag_155:\n    /* \"#utility.yul\":7785:8215   */\n  pop\n  pop\n    /* \"#utility.yul\":7770:8215   */\ntag_151:\n    /* \"#utility.yul\":7681:8222   */\n  pop\n  pop\n  pop\n  jump\t// out\n    /* \"#utility.yul\":8228:8345   */\ntag_62:\n    /* \"#utility.yul\":8282:8290   */\n  0x00\n    /* \"#utility.yul\":8332:8337   */\n  dup3\n    /* \"#utility.yul\":8326:8330   */\n  dup3\n    /* \"#utility.yul\":8322:8338   */\n  shr\n    /* \"#utility.yul\":8301:8338   */\n  swap1\n  pop\n    /* \"#utility.yul\":8228:8345   */\n  swap3\n  swap2\n  pop\n  pop\n  jump\t// out\n    /* \"#utility.yul\":8351:8520   */\ntag_63:\n    /* \"#utility.yul\":8395:8401   */\n  0x00\n    /* \"#utility.yul\":8428:8479   */\n  tag_159\n    /* \"#utility.yul\":8476:8477   */\n  0x00\n    /* \"#utility.yul\":8472:8478   */\n  not\n    /* \"#utility.yul\":8464:8469   */\n  dup5\n    /* \"#utility.yul\":8461:8462   */\n  0x08\n    /* \"#utility.yul\":8457:8470   */\n  mul\n    /* \"#utility.yul\":8428:8479   */\n  tag_62\n  jump\t// in\ntag_159:\n    /* \"#utility.yul\":8424:8480   */\n  not\n    /* \"#utility.yul\":8509:8513   */\n  dup1\n    /* \"#utility.yul\":8503:8507   */\n  dup4\n    /* \"#utility.yul\":8499:8514   */\n  and\n    /* \"#utility.yul\":8489:8514   */\n  swap2\n  pop\n    /* \"#utility.yul\":8402:8520   */\n  pop\n    /* \"#utility.yul\":8351:8520   */\n  swap3\n  swap2\n  pop\n  pop\n  jump\t// out\n    /* \"#utility.yul\":8525:8820   */\ntag_64:\n    /* \"#utility.yul\":8601:8605   */\n  0x00\n    /* \"#utility.yul\":8747:8776   */\n  tag_161\n    /* \"#utility.yul\":8772:8775   */\n  dup4\n    /* \"#utility.yul\":8766:8770   */\n  dup4\n    /* \"#utility.yul\":8747:8776   */\n  tag_63\n  jump\t// in\ntag_161:\n    /* \"#utility.yul\":8739:8776   */\n  swap2\n  pop\n    /* \"#utility.yul\":8809:8812   */\n  dup3\n    /* \"#utility.yul\":8806:8807   */\n  0x02\n    /* \"#utility.yul\":8802:8813   */\n  mul\n    /* \"#utility.yul\":8796:8800   */\n  dup3\n    /* \"#utility.yul\":8793:8814   */\n  or\n    /* \"#utility.yul\":8785:8814   */\n  swap1\n  pop\n    /* \"#utility.yul\":8525:8820   */\n  swap3\n  swap2\n  pop\n  pop\n  jump\t// out\n    /* \"#utility.yul\":8825:10215   */\ntag_13:\n    /* \"#utility.yul\":8940:8976   */\n  tag_163\n    /* \"#utility.yul\":8972:8975   */\n  dup3\n    /* \"#utility.yul\":8940:8976   */\n  tag_29\n  jump\t// in\ntag_163:\n    /* \"#utility.yul\":9041:9059   */\n  0xffffffffffffffff\n    /* \"#utility.yul\":9033:9039   */\n  dup2\n    /* \"#utility.yul\":9030:9060   */\n  gt\n    /* \"#utility.yul\":9027:9083   */\n  iszero\n  tag_164\n  jumpi\n    /* \"#utility.yul\":9063:9081   */\n  tag_165\n  tag_47\n  jump\t// in\ntag_165:\n    /* \"#utility.yul\":9027:9083   */\ntag_164:\n    /* \"#utility.yul\":9107:9145   */\n  tag_166\n    /* \"#utility.yul\":9139:9143   */\n  dup3\n    /* \"#utility.yul\":9133:9144   */\n  sload\n    /* \"#utility.yul\":9107:9145   */\n  tag_49\n  jump\t// in\ntag_166:\n    /* \"#utility.yul\":9192:9258   */\n  tag_167\n    /* \"#utility.yul\":9251:9257   */\n  dup3\n    /* \"#utility.yul\":9243:9249   */\n  dup3\n    /* \"#utility.yul\":9237:9241   */\n  dup6\n    /* \"#utility.yul\":9192:9258   */\n  tag_61\n  jump\t// in\ntag_167:\n    /* \"#utility.yul\":9285:9286   */\n  0x00\n    /* \"#utility.yul\":9309:9313   */\n  0x20\n    /* \"#utility.yul\":9296:9313   */\n  swap1\n  pop\n    /* \"#utility.yul\":9341:9343   */\n  0x1f\n    /* \"#utility.yul\":9333:9339   */\n  dup4\n    /* \"#utility.yul\":9330:9344   */\n  gt\n    /* \"#utility.yul\":9358:9359   */\n  0x01\n    /* \"#utility.yul\":9353:9970   */\n  dup2\n  eq\n  tag_169\n  jumpi\n    /* \"#utility.yul\":10014:10015   */\n  0x00\n    /* \"#utility.yul\":10031:10037   */\n  dup5\n    /* \"#utility.yul\":10028:10105   */\n  iszero\n  tag_170\n  jumpi\n    /* \"#utility.yul\":10080:10089   */\n  dup3\n    /* \"#utility.yul\":10075:10078   */\n  dup8\n    /* \"#utility.yul\":10071:10090   */\n  add\n    /* \"#utility.yul\":10065:10091   */\n  mload\n    /* \"#utility.yul\":10056:10091   */\n  swap1\n  pop\n    /* \"#utility.yul\":10028:10105   */\ntag_170:\n    /* \"#utility.yul\":10131:10198   */\n  tag_171\n    /* \"#utility.yul\":10191:10197   */\n  dup6\n    /* \"#utility.yul\":10184:10189   */\n  dup3\n    /* \"#utility.yul\":10131:10198   */\n  tag_64\n  jump\t// in\ntag_171:\n    /* \"#utility.yul\":10125:10129   */\n  dup7\n    /* \"#utility.yul\":10118:10199   */\n  sstore\n    /* \"#utility.yul\":9987:10209   */\n  pop\n    /* \"#utility.yul\":9323:10209   */\n  jump(tag_168)\n    /* \"#utility.yul\":9353:9970   */\ntag_169:\n    /* \"#utility.yul\":9405:9409   */\n  0x1f\n    /* \"#utility.yul\":9401:9410   */\n  not\n    /* \"#utility.yul\":9393:9399   */\n  dup5\n    /* \"#utility.yul\":9389:9411   */\n  and\n    /* \"#utility.yul\":9439:9475   */\n  tag_172\n    /* \"#utility.yul\":9470:9474   */\n  dup7\n    /* \"#utility.yul\":9439:9475   */\n  tag_50\n  jump\t// in\ntag_172:\n    /* \"#utility.yul\":9497:9498   */\n  0x00\n    /* \"#utility.yul\":9511:9719   */\ntag_173:\n    /* \"#utility.yul\":9525:9532   */\n  dup3\n    /* \"#utility.yul\":9522:9523   */\n  dup2\n    /* \"#utility.yul\":9519:9533   */\n  lt\n    /* \"#utility.yul\":9511:9719   */\n  iszero\n  tag_175\n  jumpi\n    /* \"#utility.yul\":9604:9613   */\n  dup5\n    /* \"#utility.yul\":9599:9602   */\n  dup10\n    /* \"#utility.yul\":9595:9614   */\n  add\n    /* \"#utility.yul\":9589:9615   */\n  mload\n    /* \"#utility.yul\":9581:9587   */\n  dup3\n    /* \"#utility.yul\":9574:9616   */\n  sstore\n    /* \"#utility.yul\":9655:9656   */\n  0x01\n    /* \"#utility.yul\":9647:9653   */\n  dup3\n    /* \"#utility.yul\":9643:9657   */\n  add\n    /* \"#utility.yul\":9633:9657   */\n  swap2\n  pop\n    /* \"#utility.yul\":9702:9704   */\n  0x20\n    /* \"#utility.yul\":9691:9700   */\n  dup6\n    /* \"#utility.yul\":9687:9705   */\n  add\n    /* \"#utility.yul\":9674:9705   */\n  swap5\n  pop\n    /* \"#utility.yul\":9548:9552   */\n  0x20\n    /* \"#utility.yul\":9545:9546   */\n  dup2\n    /* \"#utility.yul\":9541:9553   */\n  add\n    /* \"#utility.yul\":9536:9553   */\n  swap1\n  pop\n    /* \"#utility.yul\":9511:9719   */\n  jump(tag_173)\ntag_175:\n    /* \"#utility.yul\":9747:9753   */\n  dup7\n    /* \"#utility.yul\":9738:9745   */\n  dup4\n    /* \"#utility.yul\":9735:9754   */\n  lt\n    /* \"#utility.yul\":9732:9911   */\n  iszero\n  tag_176\n  jumpi\n    /* \"#utility.yul\":9805:9814   */\n  dup5\n    /* \"#utility.yul\":9800:9803   */\n  dup10\n    /* \"#utility.yul\":9796:9815   */\n  add\n    /* \"#utility.yul\":9790:9816   */\n  mload\n    /* \"#utility.yul\":9848:9896   */\n  tag_177\n    /* \"#utility.yul\":9890:9894   */\n  0x1f\n    /* \"#utility.yul\":9882:9888   */\n  dup10\n    /* \"#utility.yul\":9878:9895   */\n  and\n    /* \"#utility.yul\":9867:9876   */\n  dup3\n    /* \"#utility.yul\":9848:9896   */\n  tag_63\n  jump\t// in\ntag_177:\n    /* \"#utility.yul\":9840:9846   */\n  dup4\n    /* \"#utility.yul\":9833:9897   */\n  sstore\n    /* \"#utility.yul\":9755:9911   */\n  pop\n    /* \"#utility.yul\":9732:9911   */\ntag_176:\n    /* \"#utility.yul\":9957:9958   */\n  0x01\n    /* \"#utility.yul\":9953:9954   */\n  0x02\n    /* \"#utility.yul\":9945:9951   */\n  dup9\n    /* \"#utility.yul\":9941:9955   */\n  mul\n    /* \"#utility.yul\":9937:9959   */\n  add\n    /* \"#utility.yul\":9931:9935   */\n  dup9\n    /* \"#utility.yul\":9924:9960   */\n  sstore\n    /* \"#utility.yul\":9360:9970   */\n  pop\n  pop\n  pop\n    /* \"#utility.yul\":9323:10209   */\ntag_168:\n  pop\n    /* \"#utility.yul\":8915:10215   */\n  pop\n  pop\n  pop\n    /* \"#utility.yul\":8825:10215   */\n  pop\n  pop\n  jump\t// out\n    /* \"#utility.yul\":10221:10621   */\ntag_65:\n    /* \"#utility.yul\":10381:10384   */\n  0x00\n    /* \"#utility.yul\":10402:10486   */\n  tag_179\n    /* \"#utility.yul\":10484:10485   */\n  0x05\n    /* \"#utility.yul\":10479:10482   */\n  dup4\n    /* \"#utility.yul\":10402:10486   */\n  tag_26\n  jump\t// in\ntag_179:\n    /* \"#utility.yul\":10395:10486   */\n  swap2\n  pop\n    /* \"#utility.yul\":10495:10588   */\n  tag_180\n    /* \"#utility.yul\":10584:10587   */\n  dup3\n    /* \"#utility.yul\":10495:10588   */\n  tag_40\n  jump\t// in\ntag_180:\n    /* \"#utility.yul\":10613:10614   */\n  0x05\n    /* \"#utility.yul\":10608:10611   */\n  dup3\n    /* \"#utility.yul\":10604:10615   */\n  add\n    /* \"#utility.yul\":10597:10615   */\n  swap1\n  pop\n    /* \"#utility.yul\":10221:10621   */\n  swap2\n  swap1\n  pop\n  jump\t// out\n    /* \"#utility.yul\":10627:10783   */\ntag_66:\n    /* \"#utility.yul\":10767:10775   */\n  0x776f726c64210000000000000000000000000000000000000000000000000000\n    /* \"#utility.yul\":10763:10764   */\n  0x00\n    /* \"#utility.yul\":10755:10761   */\n  dup3\n    /* \"#utility.yul\":10751:10765   */\n  add\n    /* \"#utility.yul\":10744:10776   */\n  mstore\n    /* \"#utility.yul\":10627:10783   */\n  pop\n  jump\t// out\n    /* \"#utility.yul\":10789:11189   */\ntag_67:\n    /* \"#utility.yul\":10949:10952   */\n  0x00\n    /* \"#utility.yul\":10970:11054   */\n  tag_183\n    /* \"#utility.yul\":11052:11053   */\n  0x06\n    /* \"#utility.yul\":11047:11050   */\n  dup4\n    /* \"#utility.yul\":10970:11054   */\n  tag_26\n  jump\t// in\ntag_183:\n    /* \"#utility.yul\":10963:11054   */\n  swap2\n  pop\n    /* \"#utility.yul\":11063:11156   */\n  tag_184\n    /* \"#utility.yul\":11152:11155   */\n  dup3\n    /* \"#utility.yul\":11063:11156   */\n  tag_66\n  jump\t// in\ntag_184:\n    /* \"#utility.yul\":11181:11182   */\n  0x06\n    /* \"#utility.yul\":11176:11179   */\n  dup3\n    /* \"#utility.yul\":11172:11183   */\n  add\n    /* \"#utility.yul\":11165:11183   */\n  swap1\n  pop\n    /* \"#utility.yul\":10789:11189   */\n  swap2\n  swap1\n  pop\n  jump\t// out\n    /* \"#utility.yul\":11195:11842   */\ntag_15:\n    /* \"#utility.yul\":11481:11484   */\n  0x00\n    /* \"#utility.yul\":11503:11651   */\n  tag_186\n    /* \"#utility.yul\":11647:11650   */\n  dup3\n    /* \"#utility.yul\":11503:11651   */\n  tag_65\n  jump\t// in\ntag_186:\n    /* \"#utility.yul\":11496:11651   */\n  swap2\n  pop\n    /* \"#utility.yul\":11668:11816   */\n  tag_187\n    /* \"#utility.yul\":11812:11815   */\n  dup3\n    /* \"#utility.yul\":11668:11816   */\n  tag_67\n  jump\t// in\ntag_187:\n    /* \"#utility.yul\":11661:11816   */\n  swap2\n  pop\n    /* \"#utility.yul\":11833:11836   */\n  dup2\n    /* \"#utility.yul\":11826:11836   */\n  swap1\n  pop\n    /* \"#utility.yul\":11195:11842   */\n  swap2\n  swap1\n  pop\n  jump\t// out\n    /* \"#utility.yul\":11848:12028   */\ntag_68:\n    /* \"#utility.yul\":11896:11973   */\n  0x4e487b7100000000000000000000000000000000000000000000000000000000\n    /* \"#utility.yul\":11893:11894   */\n  0x00\n    /* \"#utility.yul\":11886:11974   */\n  mstore\n    /* \"#utility.yul\":11993:11997   */\n  0x11\n    /* \"#utility.yul\":11990:11991   */\n  0x04\n    /* \"#utility.yul\":11983:11998   */\n  mstore\n    /* \"#utility.yul\":12017:12021   */\n  0x24\n    /* \"#utility.yul\":12014:12015   */\n  0x00\n    /* \"#utility.yul\":12007:12022   */\n  revert\n    /* \"#utility.yul\":12034:12228   */\ntag_20:\n    /* \"#utility.yul\":12074:12078   */\n  0x00\n    /* \"#utility.yul\":12094:12114   */\n  tag_190\n    /* \"#utility.yul\":12112:12113   */\n  dup3\n    /* \"#utility.yul\":12094:12114   */\n  tag_54\n  jump\t// in\ntag_190:\n    /* \"#utility.yul\":12089:12114   */\n  swap2\n  pop\n    /* \"#utility.yul\":12128:12148   */\n  tag_191\n    /* \"#utility.yul\":12146:12147   */\n  dup4\n    /* \"#utility.yul\":12128:12148   */\n  tag_54\n  jump\t// in\ntag_191:\n    /* \"#utility.yul\":12123:12148   */\n  swap3\n  pop\n    /* \"#utility.yul\":12172:12173   */\n  dup3\n    /* \"#utility.yul\":12169:12170   */\n  dup3\n    /* \"#utility.yul\":12165:12174   */\n  sub\n    /* \"#utility.yul\":12157:12174   */\n  swap1\n  pop\n    /* \"#utility.yul\":12196:12197   */\n  dup2\n    /* \"#utility.yul\":12190:12194   */\n  dup2\n    /* \"#utility.yul\":12187:12198   */\n  gt\n    /* \"#utility.yul\":12184:12221   */\n  iszero\n  tag_192\n  jumpi\n    /* \"#utility.yul\":12201:12219   */\n  tag_193\n  tag_68\n  jump\t// in\ntag_193:\n    /* \"#utility.yul\":12184:12221   */\ntag_192:\n    /* \"#utility.yul\":12034:12228   */\n  swap3\n  swap2\n  pop\n  pop\n  jump\t// out\n    /* \"#utility.yul\":12234:12472   */\ntag_22:\n    /* \"#utility.yul\":12335:12339   */\n  0x00\n    /* \"#utility.yul\":12373:12375   */\n  0x20\n    /* \"#utility.yul\":12362:12371   */\n  dup3\n    /* \"#utility.yul\":12358:12376   */\n  add\n    /* \"#utility.yul\":12350:12376   */\n  swap1\n  pop\n    /* \"#utility.yul\":12386:12465   */\n  tag_195\n    /* \"#utility.yul\":12462:12463   */\n  0x00\n    /* \"#utility.yul\":12451:12460   */\n  dup4\n    /* \"#utility.yul\":12447:12464   */\n  add\n    /* \"#utility.yul\":12438:12444   */\n  dup5\n    /* \"#utility.yul\":12386:12465   */\n  tag_46\n  jump\t// in\ntag_195:\n    /* \"#utility.yul\":12234:12472   */\n  swap3\n  swap2\n  pop\n  pop\n  jump\t// out\n    /* \"assignment/Task16.sol\":68:3449  contract builtIn2{... */\ntag_25:\n  dataSize(sub_0)\n  dup1\n  dataOffset(sub_0)\n  0x00\n  codecopy\n  0x00\n  return\nstop\n\nsub_0: assembly {\n        /* \"assignment/Task16.sol\":68:3449  contract builtIn2{... */\n      mstore(0x40, 0x80)\n      callvalue\n      dup1\n      iszero\n      tag_1\n      jumpi\n      0x00\n      dup1\n      revert\n    tag_1:\n      pop\n      jumpi(tag_2, lt(calldatasize, 0x04))\n      shr(0xe0, calldataload(0x00))\n      dup1\n      0x83197ef0\n      gt\n      tag_14\n      jumpi\n      dup1\n      0x83197ef0\n      eq\n      tag_8\n      jumpi\n      dup1\n      0x8428cf83\n      eq\n      tag_9\n      jumpi\n      dup1\n      0x8e71732b\n      eq\n      tag_10\n      jumpi\n      dup1\n      0x8fd6805c\n      eq\n      tag_11\n      jumpi\n      dup1\n      0x97a0dfb6\n      eq\n      tag_12\n      jumpi\n      dup1\n      0x9812c2bb\n      eq\n      tag_13\n      jumpi\n      jump(tag_2)\n    tag_14:\n      dup1\n      0x09bd5a60\n      eq\n      tag_3\n      jumpi\n      dup1\n      0x10bc3c75\n      eq\n      tag_4\n      jumpi\n      dup1\n      0x447a06f5\n      eq\n      tag_5\n      jumpi\n      dup1\n      0x50628c96\n      eq\n      tag_6\n      jumpi\n      dup1\n      0x7781deba\n      eq\n      tag_7\n      jumpi\n    tag_2:\n      0x00\n      dup1\n      revert\n        /* \"assignment/Task16.sol\":715:781  bytes32 public hash = keccak256(abi.encodePacked(\"Hello, world!\")) */\n    tag_3:\n      tag_15\n      tag_16\n      jump\t// in\n    tag_15:\n      mload(0x40)\n      tag_17\n      swap2\n      swap1\n      tag_18\n      jump\t// in\n    tag_17:\n      mload(0x40)\n      dup1\n      swap2\n      sub\n      swap1\n      return\n        /* \"assignment/Task16.sol\":3124:3211  function getCurrentMiner() public view returns (address) {... */\n    tag_4:\n      tag_19\n      tag_20\n      jump\t// in\n    tag_19:\n      mload(0x40)\n      tag_21\n      swap2\n      swap1\n      tag_22\n      jump\t// in\n    tag_21:\n      mload(0x40)\n      dup1\n      swap2\n      sub\n      swap1\n      return\n        /* \"assignment/Task16.sol\":1551:1814  function decodeData(bytes memory encodedData) public pure returns (uint256, address, bytes32) {... */\n    tag_5:\n      tag_23\n      0x04\n      dup1\n      calldatasize\n      sub\n      dup2\n      add\n      swap1\n      tag_24\n      swap2\n      swap1\n      tag_25\n      jump\t// in\n    tag_24:\n      tag_26\n      jump\t// in\n    tag_23:\n      mload(0x40)\n      tag_27\n      swap4\n      swap3\n      swap2\n      swap1\n      tag_28\n      jump\t// in\n    tag_27:\n      mload(0x40)\n      dup1\n      swap2\n      sub\n      swap1\n      return\n        /* \"assignment/Task16.sol\":485:607  function myFunction(uint x) public {... */\n    tag_6:\n      tag_29\n      0x04\n      dup1\n      calldatasize\n      sub\n      dup2\n      add\n      swap1\n      tag_30\n      swap2\n      swap1\n      tag_31\n      jump\t// in\n    tag_30:\n      tag_32\n      jump\t// in\n    tag_29:\n      stop\n        /* \"assignment/Task16.sol\":884:950  bytes32 public hash256 = sha256(abi.encodePacked(\"Hello, world!\")) */\n    tag_7:\n      tag_33\n      tag_34\n      jump\t// in\n    tag_33:\n      mload(0x40)\n      tag_35\n      swap2\n      swap1\n      tag_18\n      jump\t// in\n    tag_35:\n      mload(0x40)\n      dup1\n      swap2\n      sub\n      swap1\n      return\n        /* \"assignment/Task16.sol\":2553:2621  function destroy() public {... */\n    tag_8:\n      tag_36\n      tag_37\n      jump\t// in\n    tag_36:\n      stop\n        /* \"assignment/Task16.sol\":2254:2393  function recoverAddress(bytes32 hash, uint8 v, bytes32 r, bytes32 s) public pure returns (address) {... */\n    tag_9:\n      tag_38\n      0x04\n      dup1\n      calldatasize\n      sub\n      dup2\n      add\n      swap1\n      tag_39\n      swap2\n      swap1\n      tag_40\n      jump\t// in\n    tag_39:\n      tag_41\n      jump\t// in\n    tag_38:\n      mload(0x40)\n      tag_42\n      swap2\n      swap1\n      tag_22\n      jump\t// in\n    tag_42:\n      mload(0x40)\n      dup1\n      swap2\n      sub\n      swap1\n      return\n        /* \"assignment/Task16.sol\":258:348  function myFunction1(uint x) public {... */\n    tag_10:\n      tag_43\n      0x04\n      dup1\n      calldatasize\n      sub\n      dup2\n      add\n      swap1\n      tag_44\n      swap2\n      swap1\n      tag_31\n      jump\t// in\n    tag_44:\n      tag_45\n      jump\t// in\n    tag_43:\n      stop\n        /* \"assignment/Task16.sol\":2728:2879  function myFunction3() public {... */\n    tag_11:\n      tag_46\n      tag_47\n      jump\t// in\n    tag_46:\n      stop\n        /* \"assignment/Task16.sol\":1282:1385  function myFunction6(uint x, uint y, uint k) public pure returns (uint) {... */\n    tag_12:\n      tag_48\n      0x04\n      dup1\n      calldatasize\n      sub\n      dup2\n      add\n      swap1\n      tag_49\n      swap2\n      swap1\n      tag_50\n      jump\t// in\n    tag_49:\n      tag_51\n      jump\t// in\n    tag_48:\n      mload(0x40)\n      tag_52\n      swap2\n      swap1\n      tag_53\n      jump\t// in\n    tag_52:\n      mload(0x40)\n      dup1\n      swap2\n      sub\n      swap1\n      return\n        /* \"assignment/Task16.sol\":1065:1168  function myFunction5(uint x, uint y, uint k) public pure returns (uint) {... */\n    tag_13:\n      tag_54\n      0x04\n      dup1\n      calldatasize\n      sub\n      dup2\n      add\n      swap1\n      tag_55\n      swap2\n      swap1\n      tag_50\n      jump\t// in\n    tag_55:\n      tag_56\n      jump\t// in\n    tag_54:\n      mload(0x40)\n      tag_57\n      swap2\n      swap1\n      tag_53\n      jump\t// in\n    tag_57:\n      mload(0x40)\n      dup1\n      swap2\n      sub\n      swap1\n      return\n        /* \"assignment/Task16.sol\":715:781  bytes32 public hash = keccak256(abi.encodePacked(\"Hello, world!\")) */\n    tag_16:\n      sload(0x00)\n      dup2\n      jump\t// out\n        /* \"assignment/Task16.sol\":3124:3211  function getCurrentMiner() public view returns (address) {... */\n    tag_20:\n        /* \"assignment/Task16.sol\":3172:3179  address */\n      0x00\n        /* \"assignment/Task16.sol\":3194:3208  block.coinbase */\n      coinbase\n        /* \"assignment/Task16.sol\":3187:3208  return block.coinbase */\n      swap1\n      pop\n        /* \"assignment/Task16.sol\":3124:3211  function getCurrentMiner() public view returns (address) {... */\n      swap1\n      jump\t// out\n        /* \"assignment/Task16.sol\":1551:1814  function decodeData(bytes memory encodedData) public pure returns (uint256, address, bytes32) {... */\n    tag_26:\n        /* \"assignment/Task16.sol\":1618:1625  uint256 */\n      0x00\n        /* \"assignment/Task16.sol\":1627:1634  address */\n      dup1\n        /* \"assignment/Task16.sol\":1636:1643  bytes32 */\n      0x00\n        /* \"assignment/Task16.sol\":1652:1668  uint256 uintData */\n      dup1\n        /* \"assignment/Task16.sol\":1670:1689  address addressData */\n      0x00\n        /* \"assignment/Task16.sol\":1691:1708  bytes32 bytesData */\n      dup1\n        /* \"assignment/Task16.sol\":1723:1734  encodedData */\n      dup7\n        /* \"assignment/Task16.sol\":1712:1764  abi.decode(encodedData, (uint256, address, bytes32)) */\n      dup1\n      0x20\n      add\n      swap1\n      mload\n      dup2\n      add\n      swap1\n      tag_60\n      swap2\n      swap1\n      tag_61\n      jump\t// in\n    tag_60:\n        /* \"assignment/Task16.sol\":1651:1764  (uint256 uintData, address addressData, bytes32 bytesData) = abi.decode(encodedData, (uint256, address, bytes32)) */\n      swap3\n      pop\n      swap3\n      pop\n      swap3\n      pop\n        /* \"assignment/Task16.sol\":1778:1786  uintData */\n      dup3\n        /* \"assignment/Task16.sol\":1788:1799  addressData */\n      dup3\n        /* \"assignment/Task16.sol\":1801:1810  bytesData */\n      dup3\n        /* \"assignment/Task16.sol\":1770:1811  return (uintData, addressData, bytesData) */\n      swap6\n      pop\n      swap6\n      pop\n      swap6\n      pop\n      pop\n      pop\n      pop\n        /* \"assignment/Task16.sol\":1551:1814  function decodeData(bytes memory encodedData) public pure returns (uint256, address, bytes32) {... */\n      swap2\n      swap4\n      swap1\n      swap3\n      pop\n      jump\t// out\n        /* \"assignment/Task16.sol\":485:607  function myFunction(uint x) public {... */\n    tag_32:\n        /* \"assignment/Task16.sol\":538:539  0 */\n      0x00\n        /* \"assignment/Task16.sol\":534:535  x */\n      dup2\n        /* \"assignment/Task16.sol\":534:539  x > 0 */\n      gt\n        /* \"assignment/Task16.sol\":526:577  require(x > 0, \"Value of x must be greater than 0\") */\n      tag_63\n      jumpi\n      mload(0x40)\n      0x08c379a000000000000000000000000000000000000000000000000000000000\n      dup2\n      mstore\n      0x04\n      add\n      tag_64\n      swap1\n      tag_65\n      jump\t// in\n    tag_64:\n      mload(0x40)\n      dup1\n      swap2\n      sub\n      swap1\n      revert\n    tag_63:\n        /* \"assignment/Task16.sol\":485:607  function myFunction(uint x) public {... */\n      pop\n      jump\t// out\n        /* \"assignment/Task16.sol\":884:950  bytes32 public hash256 = sha256(abi.encodePacked(\"Hello, world!\")) */\n    tag_34:\n      sload(0x01)\n      dup2\n      jump\t// out\n        /* \"assignment/Task16.sol\":2553:2621  function destroy() public {... */\n    tag_37:\n        /* \"assignment/Task16.sol\":2606:2616  msg.sender */\n      caller\n        /* \"assignment/Task16.sol\":2585:2618  selfdestruct(payable(msg.sender)) */\n      0xffffffffffffffffffffffffffffffffffffffff\n      and\n      selfdestruct\n        /* \"assignment/Task16.sol\":2254:2393  function recoverAddress(bytes32 hash, uint8 v, bytes32 r, bytes32 s) public pure returns (address) {... */\n    tag_41:\n        /* \"assignment/Task16.sol\":2344:2351  address */\n      0x00\n        /* \"assignment/Task16.sol\":2366:2390  ecrecover(hash, v, r, s) */\n      0x01\n        /* \"assignment/Task16.sol\":2376:2380  hash */\n      dup6\n        /* \"assignment/Task16.sol\":2382:2383  v */\n      dup6\n        /* \"assignment/Task16.sol\":2385:2386  r */\n      dup6\n        /* \"assignment/Task16.sol\":2388:2389  s */\n      dup6\n        /* \"assignment/Task16.sol\":2366:2390  ecrecover(hash, v, r, s) */\n      mload(0x40)\n      0x00\n      dup2\n      mstore\n      0x20\n      add\n      0x40\n      mstore\n      mload(0x40)\n      tag_68\n      swap5\n      swap4\n      swap3\n      swap2\n      swap1\n      tag_69\n      jump\t// in\n    tag_68:\n      0x20\n      mload(0x40)\n      0x20\n      dup2\n      sub\n      swap1\n      dup1\n      dup5\n      sub\n      swap1\n      dup6\n      gas\n      staticcall\n      iszero\n      dup1\n      iszero\n      tag_71\n      jumpi\n      returndatasize\n      0x00\n      dup1\n      returndatacopy\n      revert(0x00, returndatasize)\n    tag_71:\n      pop\n      pop\n      pop\n      mload(sub(mload(0x40), 0x20))\n        /* \"assignment/Task16.sol\":2359:2390  return ecrecover(hash, v, r, s) */\n      swap1\n      pop\n        /* \"assignment/Task16.sol\":2254:2393  function recoverAddress(bytes32 hash, uint8 v, bytes32 r, bytes32 s) public pure returns (address) {... */\n      swap5\n      swap4\n      pop\n      pop\n      pop\n      pop\n      jump\t// out\n        /* \"assignment/Task16.sol\":258:348  function myFunction1(uint x) public {... */\n    tag_45:\n        /* \"assignment/Task16.sol\":311:312  0 */\n      0x00\n        /* \"assignment/Task16.sol\":307:308  x */\n      dup2\n        /* \"assignment/Task16.sol\":307:312  x > 0 */\n      gt\n        /* \"assignment/Task16.sol\":300:313  assert(x > 0) */\n      tag_73\n      jumpi\n      tag_74\n      tag_75\n      jump\t// in\n    tag_74:\n    tag_73:\n        /* \"assignment/Task16.sol\":258:348  function myFunction1(uint x) public {... */\n      pop\n      jump\t// out\n        /* \"assignment/Task16.sol\":2728:2879  function myFunction3() public {... */\n    tag_47:\n        /* \"assignment/Task16.sol\":2764:2777  uint gasStart */\n      0x00\n        /* \"assignment/Task16.sol\":2780:2789  gasleft() */\n      gas\n        /* \"assignment/Task16.sol\":2764:2789  uint gasStart = gasleft() */\n      swap1\n      pop\n        /* \"assignment/Task16.sol\":2815:2826  uint gasEnd */\n      0x00\n        /* \"assignment/Task16.sol\":2829:2838  gasleft() */\n      gas\n        /* \"assignment/Task16.sol\":2815:2838  uint gasEnd = gasleft() */\n      swap1\n      pop\n        /* \"assignment/Task16.sol\":2844:2856  uint gasUsed */\n      0x00\n        /* \"assignment/Task16.sol\":2870:2876  gasEnd */\n      dup2\n        /* \"assignment/Task16.sol\":2859:2867  gasStart */\n      dup4\n        /* \"assignment/Task16.sol\":2859:2876  gasStart - gasEnd */\n      tag_77\n      swap2\n      swap1\n      tag_78\n      jump\t// in\n    tag_77:\n        /* \"assignment/Task16.sol\":2844:2876  uint gasUsed = gasStart - gasEnd */\n      swap1\n      pop\n        /* \"assignment/Task16.sol\":2758:2879  {... */\n      pop\n      pop\n      pop\n        /* \"assignment/Task16.sol\":2728:2879  function myFunction3() public {... */\n      jump\t// out\n        /* \"assignment/Task16.sol\":1282:1385  function myFunction6(uint x, uint y, uint k) public pure returns (uint) {... */\n    tag_51:\n        /* \"assignment/Task16.sol\":1348:1352  uint */\n      0x00\n        /* \"assignment/Task16.sol\":1380:1381  k */\n      dup2\n        /* \"assignment/Task16.sol\":1367:1382  mulmod(x, y, k) */\n      dup1\n      tag_80\n      jumpi\n      tag_81\n      tag_82\n      jump\t// in\n    tag_81:\n    tag_80:\n        /* \"assignment/Task16.sol\":1377:1378  y */\n      dup4\n        /* \"assignment/Task16.sol\":1374:1375  x */\n      dup6\n        /* \"assignment/Task16.sol\":1367:1382  mulmod(x, y, k) */\n      mulmod\n        /* \"assignment/Task16.sol\":1360:1382  return mulmod(x, y, k) */\n      swap1\n      pop\n        /* \"assignment/Task16.sol\":1282:1385  function myFunction6(uint x, uint y, uint k) public pure returns (uint) {... */\n      swap4\n      swap3\n      pop\n      pop\n      pop\n      jump\t// out\n        /* \"assignment/Task16.sol\":1065:1168  function myFunction5(uint x, uint y, uint k) public pure returns (uint) {... */\n    tag_56:\n        /* \"assignment/Task16.sol\":1131:1135  uint */\n      0x00\n        /* \"assignment/Task16.sol\":1163:1164  k */\n      dup2\n        /* \"assignment/Task16.sol\":1150:1165  addmod(x, y, k) */\n      dup1\n      tag_84\n      jumpi\n      tag_85\n      tag_82\n      jump\t// in\n    tag_85:\n    tag_84:\n        /* \"assignment/Task16.sol\":1160:1161  y */\n      dup4\n        /* \"assignment/Task16.sol\":1157:1158  x */\n      dup6\n        /* \"assignment/Task16.sol\":1150:1165  addmod(x, y, k) */\n      addmod\n        /* \"assignment/Task16.sol\":1143:1165  return addmod(x, y, k) */\n      swap1\n      pop\n        /* \"assignment/Task16.sol\":1065:1168  function myFunction5(uint x, uint y, uint k) public pure returns (uint) {... */\n      swap4\n      swap3\n      pop\n      pop\n      pop\n      jump\t// out\n        /* \"#utility.yul\":7:84   */\n    tag_86:\n        /* \"#utility.yul\":44:51   */\n      0x00\n        /* \"#utility.yul\":73:78   */\n      dup2\n        /* \"#utility.yul\":62:78   */\n      swap1\n      pop\n        /* \"#utility.yul\":7:84   */\n      swap2\n      swap1\n      pop\n      jump\t// out\n        /* \"#utility.yul\":90:208   */\n    tag_87:\n        /* \"#utility.yul\":177:201   */\n      tag_126\n        /* \"#utility.yul\":195:200   */\n      dup2\n        /* \"#utility.yul\":177:201   */\n      tag_86\n      jump\t// in\n    tag_126:\n        /* \"#utility.yul\":172:175   */\n      dup3\n        /* \"#utility.yul\":165:202   */\n      mstore\n        /* \"#utility.yul\":90:208   */\n      pop\n      pop\n      jump\t// out\n        /* \"#utility.yul\":214:436   */\n    tag_18:\n        /* \"#utility.yul\":307:311   */\n      0x00\n        /* \"#utility.yul\":345:347   */\n      0x20\n        /* \"#utility.yul\":334:343   */\n      dup3\n        /* \"#utility.yul\":330:348   */\n      add\n        /* \"#utility.yul\":322:348   */\n      swap1\n      pop\n        /* \"#utility.yul\":358:429   */\n      tag_128\n        /* \"#utility.yul\":426:427   */\n      0x00\n        /* \"#utility.yul\":415:424   */\n      dup4\n        /* \"#utility.yul\":411:428   */\n      add\n        /* \"#utility.yul\":402:408   */\n      dup5\n        /* \"#utility.yul\":358:429   */\n      tag_87\n      jump\t// in\n    tag_128:\n        /* \"#utility.yul\":214:436   */\n      swap3\n      swap2\n      pop\n      pop\n      jump\t// out\n        /* \"#utility.yul\":442:568   */\n    tag_88:\n        /* \"#utility.yul\":479:486   */\n      0x00\n        /* \"#utility.yul\":519:561   */\n      0xffffffffffffffffffffffffffffffffffffffff\n        /* \"#utility.yul\":512:517   */\n      dup3\n        /* \"#utility.yul\":508:562   */\n      and\n        /* \"#utility.yul\":497:562   */\n      swap1\n      pop\n        /* \"#utility.yul\":442:568   */\n      swap2\n      swap1\n      pop\n      jump\t// out\n        /* \"#utility.yul\":574:670   */\n    tag_89:\n        /* \"#utility.yul\":611:618   */\n      0x00\n        /* \"#utility.yul\":640:664   */\n      tag_131\n        /* \"#utility.yul\":658:663   */\n      dup3\n        /* \"#utility.yul\":640:664   */\n      tag_88\n      jump\t// in\n    tag_131:\n        /* \"#utility.yul\":629:664   */\n      swap1\n      pop\n        /* \"#utility.yul\":574:670   */\n      swap2\n      swap1\n      pop\n      jump\t// out\n        /* \"#utility.yul\":676:794   */\n    tag_90:\n        /* \"#utility.yul\":763:787   */\n      tag_133\n        /* \"#utility.yul\":781:786   */\n      dup2\n        /* \"#utility.yul\":763:787   */\n      tag_89\n      jump\t// in\n    tag_133:\n        /* \"#utility.yul\":758:761   */\n      dup3\n        /* \"#utility.yul\":751:788   */\n      mstore\n        /* \"#utility.yul\":676:794   */\n      pop\n      pop\n      jump\t// out\n        /* \"#utility.yul\":800:1022   */\n    tag_22:\n        /* \"#utility.yul\":893:897   */\n      0x00\n        /* \"#utility.yul\":931:933   */\n      0x20\n        /* \"#utility.yul\":920:929   */\n      dup3\n        /* \"#utility.yul\":916:934   */\n      add\n        /* \"#utility.yul\":908:934   */\n      swap1\n      pop\n        /* \"#utility.yul\":944:1015   */\n      tag_135\n        /* \"#utility.yul\":1012:1013   */\n      0x00\n        /* \"#utility.yul\":1001:1010   */\n      dup4\n        /* \"#utility.yul\":997:1014   */\n      add\n        /* \"#utility.yul\":988:994   */\n      dup5\n        /* \"#utility.yul\":944:1015   */\n      tag_90\n      jump\t// in\n    tag_135:\n        /* \"#utility.yul\":800:1022   */\n      swap3\n      swap2\n      pop\n      pop\n      jump\t// out\n        /* \"#utility.yul\":1028:1103   */\n    tag_91:\n        /* \"#utility.yul\":1061:1067   */\n      0x00\n        /* \"#utility.yul\":1094:1096   */\n      0x40\n        /* \"#utility.yul\":1088:1097   */\n      mload\n        /* \"#utility.yul\":1078:1097   */\n      swap1\n      pop\n        /* \"#utility.yul\":1028:1103   */\n      swap1\n      jump\t// out\n        /* \"#utility.yul\":1109:1226   */\n    tag_92:\n        /* \"#utility.yul\":1218:1219   */\n      0x00\n        /* \"#utility.yul\":1215:1216   */\n      dup1\n        /* \"#utility.yul\":1208:1220   */\n      revert\n        /* \"#utility.yul\":1232:1349   */\n    tag_93:\n        /* \"#utility.yul\":1341:1342   */\n      0x00\n        /* \"#utility.yul\":1338:1339   */\n      dup1\n        /* \"#utility.yul\":1331:1343   */\n      revert\n        /* \"#utility.yul\":1355:1472   */\n    tag_94:\n        /* \"#utility.yul\":1464:1465   */\n      0x00\n        /* \"#utility.yul\":1461:1462   */\n      dup1\n        /* \"#utility.yul\":1454:1466   */\n      revert\n        /* \"#utility.yul\":1478:1595   */\n    tag_95:\n        /* \"#utility.yul\":1587:1588   */\n      0x00\n        /* \"#utility.yul\":1584:1585   */\n      dup1\n        /* \"#utility.yul\":1577:1589   */\n      revert\n        /* \"#utility.yul\":1601:1703   */\n    tag_96:\n        /* \"#utility.yul\":1642:1648   */\n      0x00\n        /* \"#utility.yul\":1693:1695   */\n      0x1f\n        /* \"#utility.yul\":1689:1696   */\n      not\n        /* \"#utility.yul\":1684:1686   */\n      0x1f\n        /* \"#utility.yul\":1677:1682   */\n      dup4\n        /* \"#utility.yul\":1673:1687   */\n      add\n        /* \"#utility.yul\":1669:1697   */\n      and\n        /* \"#utility.yul\":1659:1697   */\n      swap1\n      pop\n        /* \"#utility.yul\":1601:1703   */\n      swap2\n      swap1\n      pop\n      jump\t// out\n        /* \"#utility.yul\":1709:1889   */\n    tag_97:\n        /* \"#utility.yul\":1757:1834   */\n      0x4e487b7100000000000000000000000000000000000000000000000000000000\n        /* \"#utility.yul\":1754:1755   */\n      0x00\n        /* \"#utility.yul\":1747:1835   */\n      mstore\n        /* \"#utility.yul\":1854:1858   */\n      0x41\n        /* \"#utility.yul\":1851:1852   */\n      0x04\n        /* \"#utility.yul\":1844:1859   */\n      mstore\n        /* \"#utility.yul\":1878:1882   */\n      0x24\n        /* \"#utility.yul\":1875:1876   */\n      0x00\n        /* \"#utility.yul\":1868:1883   */\n      revert\n        /* \"#utility.yul\":1895:2176   */\n    tag_98:\n        /* \"#utility.yul\":1978:2005   */\n      tag_144\n        /* \"#utility.yul\":2000:2004   */\n      dup3\n        /* \"#utility.yul\":1978:2005   */\n      tag_96\n      jump\t// in\n    tag_144:\n        /* \"#utility.yul\":1970:1976   */\n      dup2\n        /* \"#utility.yul\":1966:2006   */\n      add\n        /* \"#utility.yul\":2108:2114   */\n      dup2\n        /* \"#utility.yul\":2096:2106   */\n      dup2\n        /* \"#utility.yul\":2093:2115   */\n      lt\n        /* \"#utility.yul\":2072:2090   */\n      0xffffffffffffffff\n        /* \"#utility.yul\":2060:2070   */\n      dup3\n        /* \"#utility.yul\":2057:2091   */\n      gt\n        /* \"#utility.yul\":2054:2116   */\n      or\n        /* \"#utility.yul\":2051:2139   */\n      iszero\n      tag_145\n      jumpi\n        /* \"#utility.yul\":2119:2137   */\n      tag_146\n      tag_97\n      jump\t// in\n    tag_146:\n        /* \"#utility.yul\":2051:2139   */\n    tag_145:\n        /* \"#utility.yul\":2159:2169   */\n      dup1\n        /* \"#utility.yul\":2155:2157   */\n      0x40\n        /* \"#utility.yul\":2148:2170   */\n      mstore\n        /* \"#utility.yul\":1938:2176   */\n      pop\n        /* \"#utility.yul\":1895:2176   */\n      pop\n      pop\n      jump\t// out\n        /* \"#utility.yul\":2182:2311   */\n    tag_99:\n        /* \"#utility.yul\":2216:2222   */\n      0x00\n        /* \"#utility.yul\":2243:2263   */\n      tag_148\n      tag_91\n      jump\t// in\n    tag_148:\n        /* \"#utility.yul\":2233:2263   */\n      swap1\n      pop\n        /* \"#utility.yul\":2272:2305   */\n      tag_149\n        /* \"#utility.yul\":2300:2304   */\n      dup3\n        /* \"#utility.yul\":2292:2298   */\n      dup3\n        /* \"#utility.yul\":2272:2305   */\n      tag_98\n      jump\t// in\n    tag_149:\n        /* \"#utility.yul\":2182:2311   */\n      swap2\n      swap1\n      pop\n      jump\t// out\n        /* \"#utility.yul\":2317:2624   */\n    tag_100:\n        /* \"#utility.yul\":2378:2382   */\n      0x00\n        /* \"#utility.yul\":2468:2486   */\n      0xffffffffffffffff\n        /* \"#utility.yul\":2460:2466   */\n      dup3\n        /* \"#utility.yul\":2457:2487   */\n      gt\n        /* \"#utility.yul\":2454:2510   */\n      iszero\n      tag_151\n      jumpi\n        /* \"#utility.yul\":2490:2508   */\n      tag_152\n      tag_97\n      jump\t// in\n    tag_152:\n        /* \"#utility.yul\":2454:2510   */\n    tag_151:\n        /* \"#utility.yul\":2528:2557   */\n      tag_153\n        /* \"#utility.yul\":2550:2556   */\n      dup3\n        /* \"#utility.yul\":2528:2557   */\n      tag_96\n      jump\t// in\n    tag_153:\n        /* \"#utility.yul\":2520:2557   */\n      swap1\n      pop\n        /* \"#utility.yul\":2612:2616   */\n      0x20\n        /* \"#utility.yul\":2606:2610   */\n      dup2\n        /* \"#utility.yul\":2602:2617   */\n      add\n        /* \"#utility.yul\":2594:2617   */\n      swap1\n      pop\n        /* \"#utility.yul\":2317:2624   */\n      swap2\n      swap1\n      pop\n      jump\t// out\n        /* \"#utility.yul\":2630:2776   */\n    tag_101:\n        /* \"#utility.yul\":2727:2733   */\n      dup3\n        /* \"#utility.yul\":2722:2725   */\n      dup2\n        /* \"#utility.yul\":2717:2720   */\n      dup4\n        /* \"#utility.yul\":2704:2734   */\n      calldatacopy\n        /* \"#utility.yul\":2768:2769   */\n      0x00\n        /* \"#utility.yul\":2759:2765   */\n      dup4\n        /* \"#utility.yul\":2754:2757   */\n      dup4\n        /* \"#utility.yul\":2750:2766   */\n      add\n        /* \"#utility.yul\":2743:2770   */\n      mstore\n        /* \"#utility.yul\":2630:2776   */\n      pop\n      pop\n      pop\n      jump\t// out\n        /* \"#utility.yul\":2782:3205   */\n    tag_102:\n        /* \"#utility.yul\":2859:2864   */\n      0x00\n        /* \"#utility.yul\":2884:2949   */\n      tag_156\n        /* \"#utility.yul\":2900:2948   */\n      tag_157\n        /* \"#utility.yul\":2941:2947   */\n      dup5\n        /* \"#utility.yul\":2900:2948   */\n      tag_100\n      jump\t// in\n    tag_157:\n        /* \"#utility.yul\":2884:2949   */\n      tag_99\n      jump\t// in\n    tag_156:\n        /* \"#utility.yul\":2875:2949   */\n      swap1\n      pop\n        /* \"#utility.yul\":2972:2978   */\n      dup3\n        /* \"#utility.yul\":2965:2970   */\n      dup2\n        /* \"#utility.yul\":2958:2979   */\n      mstore\n        /* \"#utility.yul\":3010:3014   */\n      0x20\n        /* \"#utility.yul\":3003:3008   */\n      dup2\n        /* \"#utility.yul\":2999:3015   */\n      add\n        /* \"#utility.yul\":3048:3051   */\n      dup5\n        /* \"#utility.yul\":3039:3045   */\n      dup5\n        /* \"#utility.yul\":3034:3037   */\n      dup5\n        /* \"#utility.yul\":3030:3046   */\n      add\n        /* \"#utility.yul\":3027:3052   */\n      gt\n        /* \"#utility.yul\":3024:3136   */\n      iszero\n      tag_158\n      jumpi\n        /* \"#utility.yul\":3055:3134   */\n      tag_159\n      tag_95\n      jump\t// in\n    tag_159:\n        /* \"#utility.yul\":3024:3136   */\n    tag_158:\n        /* \"#utility.yul\":3145:3199   */\n      tag_160\n        /* \"#utility.yul\":3192:3198   */\n      dup5\n        /* \"#utility.yul\":3187:3190   */\n      dup3\n        /* \"#utility.yul\":3182:3185   */\n      dup6\n        /* \"#utility.yul\":3145:3199   */\n      tag_101\n      jump\t// in\n    tag_160:\n        /* \"#utility.yul\":2865:3205   */\n      pop\n        /* \"#utility.yul\":2782:3205   */\n      swap4\n      swap3\n      pop\n      pop\n      pop\n      jump\t// out\n        /* \"#utility.yul\":3224:3562   */\n    tag_103:\n        /* \"#utility.yul\":3279:3284   */\n      0x00\n        /* \"#utility.yul\":3328:3331   */\n      dup3\n        /* \"#utility.yul\":3321:3325   */\n      0x1f\n        /* \"#utility.yul\":3313:3319   */\n      dup4\n        /* \"#utility.yul\":3309:3326   */\n      add\n        /* \"#utility.yul\":3305:3332   */\n      slt\n        /* \"#utility.yul\":3295:3417   */\n      tag_162\n      jumpi\n        /* \"#utility.yul\":3336:3415   */\n      tag_163\n      tag_94\n      jump\t// in\n    tag_163:\n        /* \"#utility.yul\":3295:3417   */\n    tag_162:\n        /* \"#utility.yul\":3453:3459   */\n      dup2\n        /* \"#utility.yul\":3440:3460   */\n      calldataload\n        /* \"#utility.yul\":3478:3556   */\n      tag_164\n        /* \"#utility.yul\":3552:3555   */\n      dup5\n        /* \"#utility.yul\":3544:3550   */\n      dup3\n        /* \"#utility.yul\":3537:3541   */\n      0x20\n        /* \"#utility.yul\":3529:3535   */\n      dup7\n        /* \"#utility.yul\":3525:3542   */\n      add\n        /* \"#utility.yul\":3478:3556   */\n      tag_102\n      jump\t// in\n    tag_164:\n        /* \"#utility.yul\":3469:3556   */\n      swap2\n      pop\n        /* \"#utility.yul\":3285:3562   */\n      pop\n        /* \"#utility.yul\":3224:3562   */\n      swap3\n      swap2\n      pop\n      pop\n      jump\t// out\n        /* \"#utility.yul\":3568:4075   */\n    tag_25:\n        /* \"#utility.yul\":3636:3642   */\n      0x00\n        /* \"#utility.yul\":3685:3687   */\n      0x20\n        /* \"#utility.yul\":3673:3682   */\n      dup3\n        /* \"#utility.yul\":3664:3671   */\n      dup5\n        /* \"#utility.yul\":3660:3683   */\n      sub\n        /* \"#utility.yul\":3656:3688   */\n      slt\n        /* \"#utility.yul\":3653:3772   */\n      iszero\n      tag_166\n      jumpi\n        /* \"#utility.yul\":3691:3770   */\n      tag_167\n      tag_92\n      jump\t// in\n    tag_167:\n        /* \"#utility.yul\":3653:3772   */\n    tag_166:\n        /* \"#utility.yul\":3839:3840   */\n      0x00\n        /* \"#utility.yul\":3828:3837   */\n      dup3\n        /* \"#utility.yul\":3824:3841   */\n      add\n        /* \"#utility.yul\":3811:3842   */\n      calldataload\n        /* \"#utility.yul\":3869:3887   */\n      0xffffffffffffffff\n        /* \"#utility.yul\":3861:3867   */\n      dup2\n        /* \"#utility.yul\":3858:3888   */\n      gt\n        /* \"#utility.yul\":3855:3972   */\n      iszero\n      tag_168\n      jumpi\n        /* \"#utility.yul\":3891:3970   */\n      tag_169\n      tag_93\n      jump\t// in\n    tag_169:\n        /* \"#utility.yul\":3855:3972   */\n    tag_168:\n        /* \"#utility.yul\":3996:4058   */\n      tag_170\n        /* \"#utility.yul\":4050:4057   */\n      dup5\n        /* \"#utility.yul\":4041:4047   */\n      dup3\n        /* \"#utility.yul\":4030:4039   */\n      dup6\n        /* \"#utility.yul\":4026:4048   */\n      add\n        /* \"#utility.yul\":3996:4058   */\n      tag_103\n      jump\t// in\n    tag_170:\n        /* \"#utility.yul\":3986:4058   */\n      swap2\n      pop\n        /* \"#utility.yul\":3782:4068   */\n      pop\n        /* \"#utility.yul\":3568:4075   */\n      swap3\n      swap2\n      pop\n      pop\n      jump\t// out\n        /* \"#utility.yul\":4081:4158   */\n    tag_104:\n        /* \"#utility.yul\":4118:4125   */\n      0x00\n        /* \"#utility.yul\":4147:4152   */\n      dup2\n        /* \"#utility.yul\":4136:4152   */\n      swap1\n      pop\n        /* \"#utility.yul\":4081:4158   */\n      swap2\n      swap1\n      pop\n      jump\t// out\n        /* \"#utility.yul\":4164:4282   */\n    tag_105:\n        /* \"#utility.yul\":4251:4275   */\n      tag_173\n        /* \"#utility.yul\":4269:4274   */\n      dup2\n        /* \"#utility.yul\":4251:4275   */\n      tag_104\n      jump\t// in\n    tag_173:\n        /* \"#utility.yul\":4246:4249   */\n      dup3\n        /* \"#utility.yul\":4239:4276   */\n      mstore\n        /* \"#utility.yul\":4164:4282   */\n      pop\n      pop\n      jump\t// out\n        /* \"#utility.yul\":4288:4730   */\n    tag_28:\n        /* \"#utility.yul\":4437:4441   */\n      0x00\n        /* \"#utility.yul\":4475:4477   */\n      0x60\n        /* \"#utility.yul\":4464:4473   */\n      dup3\n        /* \"#utility.yul\":4460:4478   */\n      add\n        /* \"#utility.yul\":4452:4478   */\n      swap1\n      pop\n        /* \"#utility.yul\":4488:4559   */\n      tag_175\n        /* \"#utility.yul\":4556:4557   */\n      0x00\n        /* \"#utility.yul\":4545:4554   */\n      dup4\n        /* \"#utility.yul\":4541:4558   */\n      add\n        /* \"#utility.yul\":4532:4538   */\n      dup7\n        /* \"#utility.yul\":4488:4559   */\n      tag_105\n      jump\t// in\n    tag_175:\n        /* \"#utility.yul\":4569:4641   */\n      tag_176\n        /* \"#utility.yul\":4637:4639   */\n      0x20\n        /* \"#utility.yul\":4626:4635   */\n      dup4\n        /* \"#utility.yul\":4622:4640   */\n      add\n        /* \"#utility.yul\":4613:4619   */\n      dup6\n        /* \"#utility.yul\":4569:4641   */\n      tag_90\n      jump\t// in\n    tag_176:\n        /* \"#utility.yul\":4651:4723   */\n      tag_177\n        /* \"#utility.yul\":4719:4721   */\n      0x40\n        /* \"#utility.yul\":4708:4717   */\n      dup4\n        /* \"#utility.yul\":4704:4722   */\n      add\n        /* \"#utility.yul\":4695:4701   */\n      dup5\n        /* \"#utility.yul\":4651:4723   */\n      tag_87\n      jump\t// in\n    tag_177:\n        /* \"#utility.yul\":4288:4730   */\n      swap5\n      swap4\n      pop\n      pop\n      pop\n      pop\n      jump\t// out\n        /* \"#utility.yul\":4736:4858   */\n    tag_106:\n        /* \"#utility.yul\":4809:4833   */\n      tag_179\n        /* \"#utility.yul\":4827:4832   */\n      dup2\n        /* \"#utility.yul\":4809:4833   */\n      tag_104\n      jump\t// in\n    tag_179:\n        /* \"#utility.yul\":4802:4807   */\n      dup2\n        /* \"#utility.yul\":4799:4834   */\n      eq\n        /* \"#utility.yul\":4789:4852   */\n      tag_180\n      jumpi\n        /* \"#utility.yul\":4848:4849   */\n      0x00\n        /* \"#utility.yul\":4845:4846   */\n      dup1\n        /* \"#utility.yul\":4838:4850   */\n      revert\n        /* \"#utility.yul\":4789:4852   */\n    tag_180:\n        /* \"#utility.yul\":4736:4858   */\n      pop\n      jump\t// out\n        /* \"#utility.yul\":4864:5003   */\n    tag_107:\n        /* \"#utility.yul\":4910:4915   */\n      0x00\n        /* \"#utility.yul\":4948:4954   */\n      dup2\n        /* \"#utility.yul\":4935:4955   */\n      calldataload\n        /* \"#utility.yul\":4926:4955   */\n      swap1\n      pop\n        /* \"#utility.yul\":4964:4997   */\n      tag_182\n        /* \"#utility.yul\":4991:4996   */\n      dup2\n        /* \"#utility.yul\":4964:4997   */\n      tag_106\n      jump\t// in\n    tag_182:\n        /* \"#utility.yul\":4864:5003   */\n      swap3\n      swap2\n      pop\n      pop\n      jump\t// out\n        /* \"#utility.yul\":5009:5338   */\n    tag_31:\n        /* \"#utility.yul\":5068:5074   */\n      0x00\n        /* \"#utility.yul\":5117:5119   */\n      0x20\n        /* \"#utility.yul\":5105:5114   */\n      dup3\n        /* \"#utility.yul\":5096:5103   */\n      dup5\n        /* \"#utility.yul\":5092:5115   */\n      sub\n        /* \"#utility.yul\":5088:5120   */\n      slt\n        /* \"#utility.yul\":5085:5204   */\n      iszero\n      tag_184\n      jumpi\n        /* \"#utility.yul\":5123:5202   */\n      tag_185\n      tag_92\n      jump\t// in\n    tag_185:\n        /* \"#utility.yul\":5085:5204   */\n    tag_184:\n        /* \"#utility.yul\":5243:5244   */\n      0x00\n        /* \"#utility.yul\":5268:5321   */\n      tag_186\n        /* \"#utility.yul\":5313:5320   */\n      dup5\n        /* \"#utility.yul\":5304:5310   */\n      dup3\n        /* \"#utility.yul\":5293:5302   */\n      dup6\n        /* \"#utility.yul\":5289:5311   */\n      add\n        /* \"#utility.yul\":5268:5321   */\n      tag_107\n      jump\t// in\n    tag_186:\n        /* \"#utility.yul\":5258:5321   */\n      swap2\n      pop\n        /* \"#utility.yul\":5214:5331   */\n      pop\n        /* \"#utility.yul\":5009:5338   */\n      swap3\n      swap2\n      pop\n      pop\n      jump\t// out\n        /* \"#utility.yul\":5344:5466   */\n    tag_108:\n        /* \"#utility.yul\":5417:5441   */\n      tag_188\n        /* \"#utility.yul\":5435:5440   */\n      dup2\n        /* \"#utility.yul\":5417:5441   */\n      tag_86\n      jump\t// in\n    tag_188:\n        /* \"#utility.yul\":5410:5415   */\n      dup2\n        /* \"#utility.yul\":5407:5442   */\n      eq\n        /* \"#utility.yul\":5397:5460   */\n      tag_189\n      jumpi\n        /* \"#utility.yul\":5456:5457   */\n      0x00\n        /* \"#utility.yul\":5453:5454   */\n      dup1\n        /* \"#utility.yul\":5446:5458   */\n      revert\n        /* \"#utility.yul\":5397:5460   */\n    tag_189:\n        /* \"#utility.yul\":5344:5466   */\n      pop\n      jump\t// out\n        /* \"#utility.yul\":5472:5611   */\n    tag_109:\n        /* \"#utility.yul\":5518:5523   */\n      0x00\n        /* \"#utility.yul\":5556:5562   */\n      dup2\n        /* \"#utility.yul\":5543:5563   */\n      calldataload\n        /* \"#utility.yul\":5534:5563   */\n      swap1\n      pop\n        /* \"#utility.yul\":5572:5605   */\n      tag_191\n        /* \"#utility.yul\":5599:5604   */\n      dup2\n        /* \"#utility.yul\":5572:5605   */\n      tag_108\n      jump\t// in\n    tag_191:\n        /* \"#utility.yul\":5472:5611   */\n      swap3\n      swap2\n      pop\n      pop\n      jump\t// out\n        /* \"#utility.yul\":5617:5703   */\n    tag_110:\n        /* \"#utility.yul\":5652:5659   */\n      0x00\n        /* \"#utility.yul\":5692:5696   */\n      0xff\n        /* \"#utility.yul\":5685:5690   */\n      dup3\n        /* \"#utility.yul\":5681:5697   */\n      and\n        /* \"#utility.yul\":5670:5697   */\n      swap1\n      pop\n        /* \"#utility.yul\":5617:5703   */\n      swap2\n      swap1\n      pop\n      jump\t// out\n        /* \"#utility.yul\":5709:5827   */\n    tag_111:\n        /* \"#utility.yul\":5780:5802   */\n      tag_194\n        /* \"#utility.yul\":5796:5801   */\n      dup2\n        /* \"#utility.yul\":5780:5802   */\n      tag_110\n      jump\t// in\n    tag_194:\n        /* \"#utility.yul\":5773:5778   */\n      dup2\n        /* \"#utility.yul\":5770:5803   */\n      eq\n        /* \"#utility.yul\":5760:5821   */\n      tag_195\n      jumpi\n        /* \"#utility.yul\":5817:5818   */\n      0x00\n        /* \"#utility.yul\":5814:5815   */\n      dup1\n        /* \"#utility.yul\":5807:5819   */\n      revert\n        /* \"#utility.yul\":5760:5821   */\n    tag_195:\n        /* \"#utility.yul\":5709:5827   */\n      pop\n      jump\t// out\n        /* \"#utility.yul\":5833:5968   */\n    tag_112:\n        /* \"#utility.yul\":5877:5882   */\n      0x00\n        /* \"#utility.yul\":5915:5921   */\n      dup2\n        /* \"#utility.yul\":5902:5922   */\n      calldataload\n        /* \"#utility.yul\":5893:5922   */\n      swap1\n      pop\n        /* \"#utility.yul\":5931:5962   */\n      tag_197\n        /* \"#utility.yul\":5956:5961   */\n      dup2\n        /* \"#utility.yul\":5931:5962   */\n      tag_111\n      jump\t// in\n    tag_197:\n        /* \"#utility.yul\":5833:5968   */\n      swap3\n      swap2\n      pop\n      pop\n      jump\t// out\n        /* \"#utility.yul\":5974:6735   */\n    tag_40:\n        /* \"#utility.yul\":6058:6064   */\n      0x00\n        /* \"#utility.yul\":6066:6072   */\n      dup1\n        /* \"#utility.yul\":6074:6080   */\n      0x00\n        /* \"#utility.yul\":6082:6088   */\n      dup1\n        /* \"#utility.yul\":6131:6134   */\n      0x80\n        /* \"#utility.yul\":6119:6128   */\n      dup6\n        /* \"#utility.yul\":6110:6117   */\n      dup8\n        /* \"#utility.yul\":6106:6129   */\n      sub\n        /* \"#utility.yul\":6102:6135   */\n      slt\n        /* \"#utility.yul\":6099:6219   */\n      iszero\n      tag_199\n      jumpi\n        /* \"#utility.yul\":6138:6217   */\n      tag_200\n      tag_92\n      jump\t// in\n    tag_200:\n        /* \"#utility.yul\":6099:6219   */\n    tag_199:\n        /* \"#utility.yul\":6258:6259   */\n      0x00\n        /* \"#utility.yul\":6283:6336   */\n      tag_201\n        /* \"#utility.yul\":6328:6335   */\n      dup8\n        /* \"#utility.yul\":6319:6325   */\n      dup3\n        /* \"#utility.yul\":6308:6317   */\n      dup9\n        /* \"#utility.yul\":6304:6326   */\n      add\n        /* \"#utility.yul\":6283:6336   */\n      tag_109\n      jump\t// in\n    tag_201:\n        /* \"#utility.yul\":6273:6336   */\n      swap5\n      pop\n        /* \"#utility.yul\":6229:6346   */\n      pop\n        /* \"#utility.yul\":6385:6387   */\n      0x20\n        /* \"#utility.yul\":6411:6462   */\n      tag_202\n        /* \"#utility.yul\":6454:6461   */\n      dup8\n        /* \"#utility.yul\":6445:6451   */\n      dup3\n        /* \"#utility.yul\":6434:6443   */\n      dup9\n        /* \"#utility.yul\":6430:6452   */\n      add\n        /* \"#utility.yul\":6411:6462   */\n      tag_112\n      jump\t// in\n    tag_202:\n        /* \"#utility.yul\":6401:6462   */\n      swap4\n      pop\n        /* \"#utility.yul\":6356:6472   */\n      pop\n        /* \"#utility.yul\":6511:6513   */\n      0x40\n        /* \"#utility.yul\":6537:6590   */\n      tag_203\n        /* \"#utility.yul\":6582:6589   */\n      dup8\n        /* \"#utility.yul\":6573:6579   */\n      dup3\n        /* \"#utility.yul\":6562:6571   */\n      dup9\n        /* \"#utility.yul\":6558:6580   */\n      add\n        /* \"#utility.yul\":6537:6590   */\n      tag_109\n      jump\t// in\n    tag_203:\n        /* \"#utility.yul\":6527:6590   */\n      swap3\n      pop\n        /* \"#utility.yul\":6482:6600   */\n      pop\n        /* \"#utility.yul\":6639:6641   */\n      0x60\n        /* \"#utility.yul\":6665:6718   */\n      tag_204\n        /* \"#utility.yul\":6710:6717   */\n      dup8\n        /* \"#utility.yul\":6701:6707   */\n      dup3\n        /* \"#utility.yul\":6690:6699   */\n      dup9\n        /* \"#utility.yul\":6686:6708   */\n      add\n        /* \"#utility.yul\":6665:6718   */\n      tag_109\n      jump\t// in\n    tag_204:\n        /* \"#utility.yul\":6655:6718   */\n      swap2\n      pop\n        /* \"#utility.yul\":6610:6728   */\n      pop\n        /* \"#utility.yul\":5974:6735   */\n      swap3\n      swap6\n      swap2\n      swap5\n      pop\n      swap3\n      pop\n      jump\t// out\n        /* \"#utility.yul\":6741:7360   */\n    tag_50:\n        /* \"#utility.yul\":6818:6824   */\n      0x00\n        /* \"#utility.yul\":6826:6832   */\n      dup1\n        /* \"#utility.yul\":6834:6840   */\n      0x00\n        /* \"#utility.yul\":6883:6885   */\n      0x60\n        /* \"#utility.yul\":6871:6880   */\n      dup5\n        /* \"#utility.yul\":6862:6869   */\n      dup7\n        /* \"#utility.yul\":6858:6881   */\n      sub\n        /* \"#utility.yul\":6854:6886   */\n      slt\n        /* \"#utility.yul\":6851:6970   */\n      iszero\n      tag_206\n      jumpi\n        /* \"#utility.yul\":6889:6968   */\n      tag_207\n      tag_92\n      jump\t// in\n    tag_207:\n        /* \"#utility.yul\":6851:6970   */\n    tag_206:\n        /* \"#utility.yul\":7009:7010   */\n      0x00\n        /* \"#utility.yul\":7034:7087   */\n      tag_208\n        /* \"#utility.yul\":7079:7086   */\n      dup7\n        /* \"#utility.yul\":7070:7076   */\n      dup3\n        /* \"#utility.yul\":7059:7068   */\n      dup8\n        /* \"#utility.yul\":7055:7077   */\n      add\n        /* \"#utility.yul\":7034:7087   */\n      tag_107\n      jump\t// in\n    tag_208:\n        /* \"#utility.yul\":7024:7087   */\n      swap4\n      pop\n        /* \"#utility.yul\":6980:7097   */\n      pop\n        /* \"#utility.yul\":7136:7138   */\n      0x20\n        /* \"#utility.yul\":7162:7215   */\n      tag_209\n        /* \"#utility.yul\":7207:7214   */\n      dup7\n        /* \"#utility.yul\":7198:7204   */\n      dup3\n        /* \"#utility.yul\":7187:7196   */\n      dup8\n        /* \"#utility.yul\":7183:7205   */\n      add\n        /* \"#utility.yul\":7162:7215   */\n      tag_107\n      jump\t// in\n    tag_209:\n        /* \"#utility.yul\":7152:7215   */\n      swap3\n      pop\n        /* \"#utility.yul\":7107:7225   */\n      pop\n        /* \"#utility.yul\":7264:7266   */\n      0x40\n        /* \"#utility.yul\":7290:7343   */\n      tag_210\n        /* \"#utility.yul\":7335:7342   */\n      dup7\n        /* \"#utility.yul\":7326:7332   */\n      dup3\n        /* \"#utility.yul\":7315:7324   */\n      dup8\n        /* \"#utility.yul\":7311:7333   */\n      add\n        /* \"#utility.yul\":7290:7343   */\n      tag_107\n      jump\t// in\n    tag_210:\n        /* \"#utility.yul\":7280:7343   */\n      swap2\n      pop\n        /* \"#utility.yul\":7235:7353   */\n      pop\n        /* \"#utility.yul\":6741:7360   */\n      swap3\n      pop\n      swap3\n      pop\n      swap3\n      jump\t// out\n        /* \"#utility.yul\":7366:7588   */\n    tag_53:\n        /* \"#utility.yul\":7459:7463   */\n      0x00\n        /* \"#utility.yul\":7497:7499   */\n      0x20\n        /* \"#utility.yul\":7486:7495   */\n      dup3\n        /* \"#utility.yul\":7482:7500   */\n      add\n        /* \"#utility.yul\":7474:7500   */\n      swap1\n      pop\n        /* \"#utility.yul\":7510:7581   */\n      tag_212\n        /* \"#utility.yul\":7578:7579   */\n      0x00\n        /* \"#utility.yul\":7567:7576   */\n      dup4\n        /* \"#utility.yul\":7563:7580   */\n      add\n        /* \"#utility.yul\":7554:7560   */\n      dup5\n        /* \"#utility.yul\":7510:7581   */\n      tag_105\n      jump\t// in\n    tag_212:\n        /* \"#utility.yul\":7366:7588   */\n      swap3\n      swap2\n      pop\n      pop\n      jump\t// out\n        /* \"#utility.yul\":7594:7737   */\n    tag_113:\n        /* \"#utility.yul\":7651:7656   */\n      0x00\n        /* \"#utility.yul\":7682:7688   */\n      dup2\n        /* \"#utility.yul\":7676:7689   */\n      mload\n        /* \"#utility.yul\":7667:7689   */\n      swap1\n      pop\n        /* \"#utility.yul\":7698:7731   */\n      tag_214\n        /* \"#utility.yul\":7725:7730   */\n      dup2\n        /* \"#utility.yul\":7698:7731   */\n      tag_106\n      jump\t// in\n    tag_214:\n        /* \"#utility.yul\":7594:7737   */\n      swap3\n      swap2\n      pop\n      pop\n      jump\t// out\n        /* \"#utility.yul\":7743:7847   */\n    tag_114:\n        /* \"#utility.yul\":7788:7795   */\n      0x00\n        /* \"#utility.yul\":7817:7841   */\n      tag_216\n        /* \"#utility.yul\":7835:7840   */\n      dup3\n        /* \"#utility.yul\":7817:7841   */\n      tag_88\n      jump\t// in\n    tag_216:\n        /* \"#utility.yul\":7806:7841   */\n      swap1\n      pop\n        /* \"#utility.yul\":7743:7847   */\n      swap2\n      swap1\n      pop\n      jump\t// out\n        /* \"#utility.yul\":7853:7991   */\n    tag_115:\n        /* \"#utility.yul\":7934:7966   */\n      tag_218\n        /* \"#utility.yul\":7960:7965   */\n      dup2\n        /* \"#utility.yul\":7934:7966   */\n      tag_114\n      jump\t// in\n    tag_218:\n        /* \"#utility.yul\":7927:7932   */\n      dup2\n        /* \"#utility.yul\":7924:7967   */\n      eq\n        /* \"#utility.yul\":7914:7985   */\n      tag_219\n      jumpi\n        /* \"#utility.yul\":7981:7982   */\n      0x00\n        /* \"#utility.yul\":7978:7979   */\n      dup1\n        /* \"#utility.yul\":7971:7983   */\n      revert\n        /* \"#utility.yul\":7914:7985   */\n    tag_219:\n        /* \"#utility.yul\":7853:7991   */\n      pop\n      jump\t// out\n        /* \"#utility.yul\":7997:8156   */\n    tag_116:\n        /* \"#utility.yul\":8062:8067   */\n      0x00\n        /* \"#utility.yul\":8093:8099   */\n      dup2\n        /* \"#utility.yul\":8087:8100   */\n      mload\n        /* \"#utility.yul\":8078:8100   */\n      swap1\n      pop\n        /* \"#utility.yul\":8109:8150   */\n      tag_221\n        /* \"#utility.yul\":8144:8149   */\n      dup2\n        /* \"#utility.yul\":8109:8150   */\n      tag_115\n      jump\t// in\n    tag_221:\n        /* \"#utility.yul\":7997:8156   */\n      swap3\n      swap2\n      pop\n      pop\n      jump\t// out\n        /* \"#utility.yul\":8162:8305   */\n    tag_117:\n        /* \"#utility.yul\":8219:8224   */\n      0x00\n        /* \"#utility.yul\":8250:8256   */\n      dup2\n        /* \"#utility.yul\":8244:8257   */\n      mload\n        /* \"#utility.yul\":8235:8257   */\n      swap1\n      pop\n        /* \"#utility.yul\":8266:8299   */\n      tag_223\n        /* \"#utility.yul\":8293:8298   */\n      dup2\n        /* \"#utility.yul\":8266:8299   */\n      tag_108\n      jump\t// in\n    tag_223:\n        /* \"#utility.yul\":8162:8305   */\n      swap3\n      swap2\n      pop\n      pop\n      jump\t// out\n        /* \"#utility.yul\":8311:8990   */\n    tag_61:\n        /* \"#utility.yul\":8407:8413   */\n      0x00\n        /* \"#utility.yul\":8415:8421   */\n      dup1\n        /* \"#utility.yul\":8423:8429   */\n      0x00\n        /* \"#utility.yul\":8472:8474   */\n      0x60\n        /* \"#utility.yul\":8460:8469   */\n      dup5\n        /* \"#utility.yul\":8451:8458   */\n      dup7\n        /* \"#utility.yul\":8447:8470   */\n      sub\n        /* \"#utility.yul\":8443:8475   */\n      slt\n        /* \"#utility.yul\":8440:8559   */\n      iszero\n      tag_225\n      jumpi\n        /* \"#utility.yul\":8478:8557   */\n      tag_226\n      tag_92\n      jump\t// in\n    tag_226:\n        /* \"#utility.yul\":8440:8559   */\n    tag_225:\n        /* \"#utility.yul\":8598:8599   */\n      0x00\n        /* \"#utility.yul\":8623:8687   */\n      tag_227\n        /* \"#utility.yul\":8679:8686   */\n      dup7\n        /* \"#utility.yul\":8670:8676   */\n      dup3\n        /* \"#utility.yul\":8659:8668   */\n      dup8\n        /* \"#utility.yul\":8655:8677   */\n      add\n        /* \"#utility.yul\":8623:8687   */\n      tag_113\n      jump\t// in\n    tag_227:\n        /* \"#utility.yul\":8613:8687   */\n      swap4\n      pop\n        /* \"#utility.yul\":8569:8697   */\n      pop\n        /* \"#utility.yul\":8736:8738   */\n      0x20\n        /* \"#utility.yul\":8762:8834   */\n      tag_228\n        /* \"#utility.yul\":8826:8833   */\n      dup7\n        /* \"#utility.yul\":8817:8823   */\n      dup3\n        /* \"#utility.yul\":8806:8815   */\n      dup8\n        /* \"#utility.yul\":8802:8824   */\n      add\n        /* \"#utility.yul\":8762:8834   */\n      tag_116\n      jump\t// in\n    tag_228:\n        /* \"#utility.yul\":8752:8834   */\n      swap3\n      pop\n        /* \"#utility.yul\":8707:8844   */\n      pop\n        /* \"#utility.yul\":8883:8885   */\n      0x40\n        /* \"#utility.yul\":8909:8973   */\n      tag_229\n        /* \"#utility.yul\":8965:8972   */\n      dup7\n        /* \"#utility.yul\":8956:8962   */\n      dup3\n        /* \"#utility.yul\":8945:8954   */\n      dup8\n        /* \"#utility.yul\":8941:8963   */\n      add\n        /* \"#utility.yul\":8909:8973   */\n      tag_117\n      jump\t// in\n    tag_229:\n        /* \"#utility.yul\":8899:8973   */\n      swap2\n      pop\n        /* \"#utility.yul\":8854:8983   */\n      pop\n        /* \"#utility.yul\":8311:8990   */\n      swap3\n      pop\n      swap3\n      pop\n      swap3\n      jump\t// out\n        /* \"#utility.yul\":8996:9165   */\n    tag_118:\n        /* \"#utility.yul\":9080:9091   */\n      0x00\n        /* \"#utility.yul\":9114:9120   */\n      dup3\n        /* \"#utility.yul\":9109:9112   */\n      dup3\n        /* \"#utility.yul\":9102:9121   */\n      mstore\n        /* \"#utility.yul\":9154:9158   */\n      0x20\n        /* \"#utility.yul\":9149:9152   */\n      dup3\n        /* \"#utility.yul\":9145:9159   */\n      add\n        /* \"#utility.yul\":9130:9159   */\n      swap1\n      pop\n        /* \"#utility.yul\":8996:9165   */\n      swap3\n      swap2\n      pop\n      pop\n      jump\t// out\n        /* \"#utility.yul\":9171:9391   */\n    tag_119:\n        /* \"#utility.yul\":9311:9345   */\n      0x56616c7565206f662078206d7573742062652067726561746572207468616e20\n        /* \"#utility.yul\":9307:9308   */\n      0x00\n        /* \"#utility.yul\":9299:9305   */\n      dup3\n        /* \"#utility.yul\":9295:9309   */\n      add\n        /* \"#utility.yul\":9288:9346   */\n      mstore\n        /* \"#utility.yul\":9380:9383   */\n      0x3000000000000000000000000000000000000000000000000000000000000000\n        /* \"#utility.yul\":9375:9377   */\n      0x20\n        /* \"#utility.yul\":9367:9373   */\n      dup3\n        /* \"#utility.yul\":9363:9378   */\n      add\n        /* \"#utility.yul\":9356:9384   */\n      mstore\n        /* \"#utility.yul\":9171:9391   */\n      pop\n      jump\t// out\n        /* \"#utility.yul\":9397:9763   */\n    tag_120:\n        /* \"#utility.yul\":9539:9542   */\n      0x00\n        /* \"#utility.yul\":9560:9627   */\n      tag_233\n        /* \"#utility.yul\":9624:9626   */\n      0x21\n        /* \"#utility.yul\":9619:9622   */\n      dup4\n        /* \"#utility.yul\":9560:9627   */\n      tag_118\n      jump\t// in\n    tag_233:\n        /* \"#utility.yul\":9553:9627   */\n      swap2\n      pop\n        /* \"#utility.yul\":9636:9729   */\n      tag_234\n        /* \"#utility.yul\":9725:9728   */\n      dup3\n        /* \"#utility.yul\":9636:9729   */\n      tag_119\n      jump\t// in\n    tag_234:\n        /* \"#utility.yul\":9754:9756   */\n      0x40\n        /* \"#utility.yul\":9749:9752   */\n      dup3\n        /* \"#utility.yul\":9745:9757   */\n      add\n        /* \"#utility.yul\":9738:9757   */\n      swap1\n      pop\n        /* \"#utility.yul\":9397:9763   */\n      swap2\n      swap1\n      pop\n      jump\t// out\n        /* \"#utility.yul\":9769:10188   */\n    tag_65:\n        /* \"#utility.yul\":9935:9939   */\n      0x00\n        /* \"#utility.yul\":9973:9975   */\n      0x20\n        /* \"#utility.yul\":9962:9971   */\n      dup3\n        /* \"#utility.yul\":9958:9976   */\n      add\n        /* \"#utility.yul\":9950:9976   */\n      swap1\n      pop\n        /* \"#utility.yul\":10022:10031   */\n      dup2\n        /* \"#utility.yul\":10016:10020   */\n      dup2\n        /* \"#utility.yul\":10012:10032   */\n      sub\n        /* \"#utility.yul\":10008:10009   */\n      0x00\n        /* \"#utility.yul\":9997:10006   */\n      dup4\n        /* \"#utility.yul\":9993:10010   */\n      add\n        /* \"#utility.yul\":9986:10033   */\n      mstore\n        /* \"#utility.yul\":10050:10181   */\n      tag_236\n        /* \"#utility.yul\":10176:10180   */\n      dup2\n        /* \"#utility.yul\":10050:10181   */\n      tag_120\n      jump\t// in\n    tag_236:\n        /* \"#utility.yul\":10042:10181   */\n      swap1\n      pop\n        /* \"#utility.yul\":9769:10188   */\n      swap2\n      swap1\n      pop\n      jump\t// out\n        /* \"#utility.yul\":10194:10306   */\n    tag_121:\n        /* \"#utility.yul\":10277:10299   */\n      tag_238\n        /* \"#utility.yul\":10293:10298   */\n      dup2\n        /* \"#utility.yul\":10277:10299   */\n      tag_110\n      jump\t// in\n    tag_238:\n        /* \"#utility.yul\":10272:10275   */\n      dup3\n        /* \"#utility.yul\":10265:10300   */\n      mstore\n        /* \"#utility.yul\":10194:10306   */\n      pop\n      pop\n      jump\t// out\n        /* \"#utility.yul\":10312:10857   */\n    tag_69:\n        /* \"#utility.yul\":10485:10489   */\n      0x00\n        /* \"#utility.yul\":10523:10526   */\n      0x80\n        /* \"#utility.yul\":10512:10521   */\n      dup3\n        /* \"#utility.yul\":10508:10527   */\n      add\n        /* \"#utility.yul\":10500:10527   */\n      swap1\n      pop\n        /* \"#utility.yul\":10537:10608   */\n      tag_240\n        /* \"#utility.yul\":10605:10606   */\n      0x00\n        /* \"#utility.yul\":10594:10603   */\n      dup4\n        /* \"#utility.yul\":10590:10607   */\n      add\n        /* \"#utility.yul\":10581:10587   */\n      dup8\n        /* \"#utility.yul\":10537:10608   */\n      tag_87\n      jump\t// in\n    tag_240:\n        /* \"#utility.yul\":10618:10686   */\n      tag_241\n        /* \"#utility.yul\":10682:10684   */\n      0x20\n        /* \"#utility.yul\":10671:10680   */\n      dup4\n        /* \"#utility.yul\":10667:10685   */\n      add\n        /* \"#utility.yul\":10658:10664   */\n      dup7\n        /* \"#utility.yul\":10618:10686   */\n      tag_121\n      jump\t// in\n    tag_241:\n        /* \"#utility.yul\":10696:10768   */\n      tag_242\n        /* \"#utility.yul\":10764:10766   */\n      0x40\n        /* \"#utility.yul\":10753:10762   */\n      dup4\n        /* \"#utility.yul\":10749:10767   */\n      add\n        /* \"#utility.yul\":10740:10746   */\n      dup6\n        /* \"#utility.yul\":10696:10768   */\n      tag_87\n      jump\t// in\n    tag_242:\n        /* \"#utility.yul\":10778:10850   */\n      tag_243\n        /* \"#utility.yul\":10846:10848   */\n      0x60\n        /* \"#utility.yul\":10835:10844   */\n      dup4\n        /* \"#utility.yul\":10831:10849   */\n      add\n        /* \"#utility.yul\":10822:10828   */\n      dup5\n        /* \"#utility.yul\":10778:10850   */\n      tag_87\n      jump\t// in\n    tag_243:\n        /* \"#utility.yul\":10312:10857   */\n      swap6\n      swap5\n      pop\n      pop\n      pop\n      pop\n      pop\n      jump\t// out\n        /* \"#utility.yul\":10863:11043   */\n    tag_75:\n        /* \"#utility.yul\":10911:10988   */\n      0x4e487b7100000000000000000000000000000000000000000000000000000000\n        /* \"#utility.yul\":10908:10909   */\n      0x00\n        /* \"#utility.yul\":10901:10989   */\n      mstore\n        /* \"#utility.yul\":11008:11012   */\n      0x01\n        /* \"#utility.yul\":11005:11006   */\n      0x04\n        /* \"#utility.yul\":10998:11013   */\n      mstore\n        /* \"#utility.yul\":11032:11036   */\n      0x24\n        /* \"#utility.yul\":11029:11030   */\n      0x00\n        /* \"#utility.yul\":11022:11037   */\n      revert\n        /* \"#utility.yul\":11049:11229   */\n    tag_122:\n        /* \"#utility.yul\":11097:11174   */\n      0x4e487b7100000000000000000000000000000000000000000000000000000000\n        /* \"#utility.yul\":11094:11095   */\n      0x00\n        /* \"#utility.yul\":11087:11175   */\n      mstore\n        /* \"#utility.yul\":11194:11198   */\n      0x11\n        /* \"#utility.yul\":11191:11192   */\n      0x04\n        /* \"#utility.yul\":11184:11199   */\n      mstore\n        /* \"#utility.yul\":11218:11222   */\n      0x24\n        /* \"#utility.yul\":11215:11216   */\n      0x00\n        /* \"#utility.yul\":11208:11223   */\n      revert\n        /* \"#utility.yul\":11235:11429   */\n    tag_78:\n        /* \"#utility.yul\":11275:11279   */\n      0x00\n        /* \"#utility.yul\":11295:11315   */\n      tag_247\n        /* \"#utility.yul\":11313:11314   */\n      dup3\n        /* \"#utility.yul\":11295:11315   */\n      tag_104\n      jump\t// in\n    tag_247:\n        /* \"#utility.yul\":11290:11315   */\n      swap2\n      pop\n        /* \"#utility.yul\":11329:11349   */\n      tag_248\n        /* \"#utility.yul\":11347:11348   */\n      dup4\n        /* \"#utility.yul\":11329:11349   */\n      tag_104\n      jump\t// in\n    tag_248:\n        /* \"#utility.yul\":11324:11349   */\n      swap3\n      pop\n        /* \"#utility.yul\":11373:11374   */\n      dup3\n        /* \"#utility.yul\":11370:11371   */\n      dup3\n        /* \"#utility.yul\":11366:11375   */\n      sub\n        /* \"#utility.yul\":11358:11375   */\n      swap1\n      pop\n        /* \"#utility.yul\":11397:11398   */\n      dup2\n        /* \"#utility.yul\":11391:11395   */\n      dup2\n        /* \"#utility.yul\":11388:11399   */\n      gt\n        /* \"#utility.yul\":11385:11422   */\n      iszero\n      tag_249\n      jumpi\n        /* \"#utility.yul\":11402:11420   */\n      tag_250\n      tag_122\n      jump\t// in\n    tag_250:\n        /* \"#utility.yul\":11385:11422   */\n    tag_249:\n        /* \"#utility.yul\":11235:11429   */\n      swap3\n      swap2\n      pop\n      pop\n      jump\t// out\n        /* \"#utility.yul\":11435:11615   */\n    tag_82:\n        /* \"#utility.yul\":11483:11560   */\n      0x4e487b7100000000000000000000000000000000000000000000000000000000\n        /* \"#utility.yul\":11480:11481   */\n      0x00\n        /* \"#utility.yul\":11473:11561   */\n      mstore\n        /* \"#utility.yul\":11580:11584   */\n      0x12\n        /* \"#utility.yul\":11577:11578   */\n      0x04\n        /* \"#utility.yul\":11570:11585   */\n      mstore\n        /* \"#utility.yul\":11604:11608   */\n      0x24\n        /* \"#utility.yul\":11601:11602   */\n      0x00\n        /* \"#utility.yul\":11594:11609   */\n      revert\n\n    auxdata: 0xa2646970667358221220d6f9f6f9f4b3fb2faa114ba8e8dfe83ba1f24c8bc5904cecd469bde38473be0864736f6c63430008120033\n}\n",
				"bytecode": {
					"linkReferences": {},
					"object": "6080604052604051602001620000159062000284565b604051602081830303815290604052805190602001206000556002604051602001620000419062000284565b6040516020818303038152906040526040516200005f919062000314565b602060405180830381855afa1580156200007d573d6000803e3d6000fd5b5050506040513d601f19601f82011682018060405250810190620000a291906200036d565b600155607b604051602001620000b991906200045a565b60405160208183030381529060405260029081620000d89190620006f1565b506003604051602001620000ec906200084f565b6040516020818303038152906040526040516200010a919062000314565b602060405180830381855afa15801562000128573d6000803e3d6000fd5b5050506040515160601b600360006101000a81548173ffffffffffffffffffffffffffffffffffffffff021916908360601c02179055506001436200016e9190620008a2565b406004557f50628c969c386d878aac8a993492e42110c19ba346d377fec055d2d56124b695607b604051602401620001a79190620008dd565b604051602081830303815290604052907bffffffffffffffffffffffffffffffffffffffffffffffffffffffff19166020820180517bffffffffffffffffffffffffffffffffffffffffffffffffffffffff838183161783525050505060059081620002149190620006f1565b503480156200022257600080fd5b50620008fa565b600081905092915050565b7f48656c6c6f2c20776f726c642100000000000000000000000000000000000000600082015250565b60006200026c600d8362000229565b9150620002798262000234565b600d82019050919050565b600062000291826200025d565b9150819050919050565b600081519050919050565b600081905092915050565b60005b83811015620002d1578082015181840152602081019050620002b4565b60008484015250505050565b6000620002ea826200029b565b620002f68185620002a6565b935062000308818560208601620002b1565b80840191505092915050565b6000620003228284620002dd565b915081905092915050565b600080fd5b6000819050919050565b620003478162000332565b81146200035357600080fd5b50565b60008151905062000367816200033c565b92915050565b6000602082840312156200038657620003856200032d565b5b6000620003968482850162000356565b91505092915050565b600082825260208201905092915050565b7f48656c6c6f000000000000000000000000000000000000000000000000000000600082015250565b6000620003e86005836200039f565b9150620003f582620003b0565b602082019050919050565b6000819050919050565b600060ff82169050919050565b6000819050919050565b6000620004426200043c620004368462000400565b62000417565b6200040a565b9050919050565b620004548162000421565b82525050565b600060408201905081810360008301526200047581620003d9565b905062000486602083018462000449565b92915050565b7f4e487b7100000000000000000000000000000000000000000000000000000000600052604160045260246000fd5b7f4e487b7100000000000000000000000000000000000000000000000000000000600052602260045260246000fd5b600060028204905060018216806200050357607f821691505b602082108103620005195762000518620004bb565b5b50919050565b60008190508160005260206000209050919050565b60006020601f8301049050919050565b600082821b905092915050565b600060088302620005837fffffffffffffffffffffffffffffffffffffffffffffffffffffffffffffffff8262000544565b6200058f868362000544565b95508019841693508086168417925050509392505050565b6000819050919050565b6000620005d2620005cc620005c684620005a7565b62000417565b620005a7565b9050919050565b6000819050919050565b620005ee83620005b1565b62000606620005fd82620005d9565b84845462000551565b825550505050565b600090565b6200061d6200060e565b6200062a818484620005e3565b505050565b5b8181101562000652576200064660008262000613565b60018101905062000630565b5050565b601f821115620006a1576200066b816200051f565b620006768462000534565b8101602085101562000686578190505b6200069e620006958562000534565b8301826200062f565b50505b505050565b600082821c905092915050565b6000620006c660001984600802620006a6565b1980831691505092915050565b6000620006e18383620006b3565b9150826002028217905092915050565b620006fc826200029b565b67ffffffffffffffff8111156200071857620007176200048c565b5b620007248254620004ea565b6200073182828562000656565b600060209050601f83116001811462000769576000841562000754578287015190505b620007608582620006d3565b865550620007d0565b601f19841662000779866200051f565b60005b82811015620007a3578489015182556001820191506020850194506020810190506200077c565b86831015620007c35784890151620007bf601f891682620006b3565b8355505b6001600288020188555050505b505050505050565b6000620007e760058362000229565b9150620007f482620003b0565b600582019050919050565b7f776f726c64210000000000000000000000000000000000000000000000000000600082015250565b60006200083760068362000229565b91506200084482620007ff565b600682019050919050565b60006200085c82620007d8565b9150620008698262000828565b9150819050919050565b7f4e487b7100000000000000000000000000000000000000000000000000000000600052601160045260246000fd5b6000620008af82620005a7565b9150620008bc83620005a7565b9250828203905081811115620008d757620008d662000873565b5b92915050565b6000602082019050620008f4600083018462000449565b92915050565b610a46806200090a6000396000f3fe608060405234801561001057600080fd5b50600436106100a95760003560e01c806383197ef01161007157806383197ef0146101565780638428cf83146101605780638e71732b146101905780638fd6805c146101ac57806397a0dfb6146101b65780639812c2bb146101e6576100a9565b806309bd5a60146100ae57806310bc3c75146100cc578063447a06f5146100ea57806350628c961461011c5780637781deba14610138575b600080fd5b6100b6610216565b6040516100c391906103a0565b60405180910390f35b6100d461021c565b6040516100e191906103fc565b60405180910390f35b61010460048036038101906100ff9190610571565b610224565b604051610113939291906105d3565b60405180910390f35b61013660048036038101906101319190610636565b61025a565b005b6101406102a0565b60405161014d91906103a0565b60405180910390f35b61015e6102a6565b005b61017a600480360381019061017591906106c8565b6102bf565b60405161018791906103fc565b60405180910390f35b6101aa60048036038101906101a59190610636565b61031a565b005b6101b461032e565b005b6101d060048036038101906101cb919061072f565b61034d565b6040516101dd9190610782565b60405180910390f35b61020060048036038101906101fb919061072f565b61036a565b60405161020d9190610782565b60405180910390f35b60005481565b600041905090565b600080600080600080868060200190518101906102419190610805565b9250925092508282829550955095505050509193909250565b6000811161029d576040517f08c379a0000000000000000000000000000000000000000000000000000000008152600401610294906108db565b60405180910390fd5b50565b60015481565b3373ffffffffffffffffffffffffffffffffffffffff16ff5b6000600185858585604051600081526020016040526040516102e4949392919061090a565b6020604051602081039080840390855afa158015610306573d6000803e3d6000fd5b505050602060405103519050949350505050565b6000811161032b5761032a61094f565b5b50565b60005a905060005a90506000818361034691906109ad565b9050505050565b6000818061035e5761035d6109e1565b5b83850990509392505050565b6000818061037b5761037a6109e1565b5b83850890509392505050565b6000819050919050565b61039a81610387565b82525050565b60006020820190506103b56000830184610391565b92915050565b600073ffffffffffffffffffffffffffffffffffffffff82169050919050565b60006103e6826103bb565b9050919050565b6103f6816103db565b82525050565b600060208201905061041160008301846103ed565b92915050565b6000604051905090565b600080fd5b600080fd5b600080fd5b600080fd5b6000601f19601f8301169050919050565b7f4e487b7100000000000000000000000000000000000000000000000000000000600052604160045260246000fd5b61047e82610435565b810181811067ffffffffffffffff8211171561049d5761049c610446565b5b80604052505050565b60006104b0610417565b90506104bc8282610475565b919050565b600067ffffffffffffffff8211156104dc576104db610446565b5b6104e582610435565b9050602081019050919050565b82818337600083830152505050565b600061051461050f846104c1565b6104a6565b9050828152602081018484840111156105305761052f610430565b5b61053b8482856104f2565b509392505050565b600082601f8301126105585761055761042b565b5b8135610568848260208601610501565b91505092915050565b60006020828403121561058757610586610421565b5b600082013567ffffffffffffffff8111156105a5576105a4610426565b5b6105b184828501610543565b91505092915050565b6000819050919050565b6105cd816105ba565b82525050565b60006060820190506105e860008301866105c4565b6105f560208301856103ed565b6106026040830184610391565b949350505050565b610613816105ba565b811461061e57600080fd5b50565b6000813590506106308161060a565b92915050565b60006020828403121561064c5761064b610421565b5b600061065a84828501610621565b91505092915050565b61066c81610387565b811461067757600080fd5b50565b60008135905061068981610663565b92915050565b600060ff82169050919050565b6106a58161068f565b81146106b057600080fd5b50565b6000813590506106c28161069c565b92915050565b600080600080608085870312156106e2576106e1610421565b5b60006106f08782880161067a565b9450506020610701878288016106b3565b93505060406107128782880161067a565b92505060606107238782880161067a565b91505092959194509250565b60008060006060848603121561074857610747610421565b5b600061075686828701610621565b935050602061076786828701610621565b925050604061077886828701610621565b9150509250925092565b600060208201905061079760008301846105c4565b92915050565b6000815190506107ac8161060a565b92915050565b60006107bd826103bb565b9050919050565b6107cd816107b2565b81146107d857600080fd5b50565b6000815190506107ea816107c4565b92915050565b6000815190506107ff81610663565b92915050565b60008060006060848603121561081e5761081d610421565b5b600061082c8682870161079d565b935050602061083d868287016107db565b925050604061084e868287016107f0565b9150509250925092565b600082825260208201905092915050565b7f56616c7565206f662078206d7573742062652067726561746572207468616e2060008201527f3000000000000000000000000000000000000000000000000000000000000000602082015250565b60006108c5602183610858565b91506108d082610869565b604082019050919050565b600060208201905081810360008301526108f4816108b8565b9050919050565b6109048161068f565b82525050565b600060808201905061091f6000830187610391565b61092c60208301866108fb565b6109396040830185610391565b6109466060830184610391565b95945050505050565b7f4e487b7100000000000000000000000000000000000000000000000000000000600052600160045260246000fd5b7f4e487b7100000000000000000000000000000000000000000000000000000000600052601160045260246000fd5b60006109b8826105ba565b91506109c3836105ba565b92508282039050818111156109db576109da61097e565b5b92915050565b7f4e487b7100000000000000000000000000000000000000000000000000000000600052601260045260246000fdfea2646970667358221220d6f9f6f9f4b3fb2faa114ba8e8dfe83ba1f24c8bc5904cecd469bde38473be0864736f6c63430008120033",
					"opcodes": "PUSH1 0x80 PUSH1 0x40 MSTORE PUSH1 0x40 MLOAD PUSH1 0x20 ADD PUSH3 0x15 SWAP1 PUSH3 0x284 JUMP JUMPDEST PUSH1 0x40 MLOAD PUSH1 0x20 DUP2 DUP4 SUB SUB DUP2 MSTORE SWAP1 PUSH1 0x40 MSTORE DUP1 MLOAD SWAP1 PUSH1 0x20 ADD KECCAK256 PUSH1 0x0 SSTORE PUSH1 0x2 PUSH1 0x40 MLOAD PUSH1 0x20 ADD PUSH3 0x41 SWAP1 PUSH3 0x284 JUMP JUMPDEST PUSH1 0x40 MLOAD PUSH1 0x20 DUP2 DUP4 SUB SUB DUP2 MSTORE SWAP1 PUSH1 0x40 MSTORE PUSH1 0x40 MLOAD PUSH3 0x5F SWAP2 SWAP1 PUSH3 0x314 JUMP JUMPDEST PUSH1 0x20 PUSH1 0x40 MLOAD DUP1 DUP4 SUB DUP2 DUP6 GAS STATICCALL ISZERO DUP1 ISZERO PUSH3 0x7D JUMPI RETURNDATASIZE PUSH1 0x0 DUP1 RETURNDATACOPY RETURNDATASIZE PUSH1 0x0 REVERT JUMPDEST POP POP POP PUSH1 0x40 MLOAD RETURNDATASIZE PUSH1 0x1F NOT PUSH1 0x1F DUP3 ADD AND DUP3 ADD DUP1 PUSH1 0x40 MSTORE POP DUP2 ADD SWAP1 PUSH3 0xA2 SWAP2 SWAP1 PUSH3 0x36D JUMP JUMPDEST PUSH1 0x1 SSTORE PUSH1 0x7B PUSH1 0x40 MLOAD PUSH1 0x20 ADD PUSH3 0xB9 SWAP2 SWAP1 PUSH3 0x45A JUMP JUMPDEST PUSH1 0x40 MLOAD PUSH1 0x20 DUP2 DUP4 SUB SUB DUP2 MSTORE SWAP1 PUSH1 0x40 MSTORE PUSH1 0x2 SWAP1 DUP2 PUSH3 0xD8 SWAP2 SWAP1 PUSH3 0x6F1 JUMP JUMPDEST POP PUSH1 0x3 PUSH1 0x40 MLOAD PUSH1 0x20 ADD PUSH3 0xEC SWAP1 PUSH3 0x84F JUMP JUMPDEST PUSH1 0x40 MLOAD PUSH1 0x20 DUP2 DUP4 SUB SUB DUP2 MSTORE SWAP1 PUSH1 0x40 MSTORE PUSH1 0x40 MLOAD PUSH3 0x10A SWAP2 SWAP1 PUSH3 0x314 JUMP JUMPDEST PUSH1 0x20 PUSH1 0x40 MLOAD DUP1 DUP4 SUB DUP2 DUP6 GAS STATICCALL ISZERO DUP1 ISZERO PUSH3 0x128 JUMPI RETURNDATASIZE PUSH1 0x0 DUP1 RETURNDATACOPY RETURNDATASIZE PUSH1 0x0 REVERT JUMPDEST POP POP POP PUSH1 0x40 MLOAD MLOAD PUSH1 0x60 SHL PUSH1 0x3 PUSH1 0x0 PUSH2 0x100 EXP DUP2 SLOAD DUP2 PUSH20 0xFFFFFFFFFFFFFFFFFFFFFFFFFFFFFFFFFFFFFFFF MUL NOT AND SWAP1 DUP4 PUSH1 0x60 SHR MUL OR SWAP1 SSTORE POP PUSH1 0x1 NUMBER PUSH3 0x16E SWAP2 SWAP1 PUSH3 0x8A2 JUMP JUMPDEST BLOCKHASH PUSH1 0x4 SSTORE PUSH32 0x50628C969C386D878AAC8A993492E42110C19BA346D377FEC055D2D56124B695 PUSH1 0x7B PUSH1 0x40 MLOAD PUSH1 0x24 ADD PUSH3 0x1A7 SWAP2 SWAP1 PUSH3 0x8DD JUMP JUMPDEST PUSH1 0x40 MLOAD PUSH1 0x20 DUP2 DUP4 SUB SUB DUP2 MSTORE SWAP1 PUSH1 0x40 MSTORE SWAP1 PUSH28 0xFFFFFFFFFFFFFFFFFFFFFFFFFFFFFFFFFFFFFFFFFFFFFFFFFFFFFFFF NOT AND PUSH1 0x20 DUP3 ADD DUP1 MLOAD PUSH28 0xFFFFFFFFFFFFFFFFFFFFFFFFFFFFFFFFFFFFFFFFFFFFFFFFFFFFFFFF DUP4 DUP2 DUP4 AND OR DUP4 MSTORE POP POP POP POP PUSH1 0x5 SWAP1 DUP2 PUSH3 0x214 SWAP2 SWAP1 PUSH3 0x6F1 JUMP JUMPDEST POP CALLVALUE DUP1 ISZERO PUSH3 0x222 JUMPI PUSH1 0x0 DUP1 REVERT JUMPDEST POP PUSH3 0x8FA JUMP JUMPDEST PUSH1 0x0 DUP2 SWAP1 POP SWAP3 SWAP2 POP POP JUMP JUMPDEST PUSH32 0x48656C6C6F2C20776F726C642100000000000000000000000000000000000000 PUSH1 0x0 DUP3 ADD MSTORE POP JUMP JUMPDEST PUSH1 0x0 PUSH3 0x26C PUSH1 0xD DUP4 PUSH3 0x229 JUMP JUMPDEST SWAP2 POP PUSH3 0x279 DUP3 PUSH3 0x234 JUMP JUMPDEST PUSH1 0xD DUP3 ADD SWAP1 POP SWAP2 SWAP1 POP JUMP JUMPDEST PUSH1 0x0 PUSH3 0x291 DUP3 PUSH3 0x25D JUMP JUMPDEST SWAP2 POP DUP2 SWAP1 POP SWAP2 SWAP1 POP JUMP JUMPDEST PUSH1 0x0 DUP2 MLOAD SWAP1 POP SWAP2 SWAP1 POP JUMP JUMPDEST PUSH1 0x0 DUP2 SWAP1 POP SWAP3 SWAP2 POP POP JUMP JUMPDEST PUSH1 0x0 JUMPDEST DUP4 DUP2 LT ISZERO PUSH3 0x2D1 JUMPI DUP1 DUP3 ADD MLOAD DUP2 DUP5 ADD MSTORE PUSH1 0x20 DUP2 ADD SWAP1 POP PUSH3 0x2B4 JUMP JUMPDEST PUSH1 0x0 DUP5 DUP5 ADD MSTORE POP POP POP POP JUMP JUMPDEST PUSH1 0x0 PUSH3 0x2EA DUP3 PUSH3 0x29B JUMP JUMPDEST PUSH3 0x2F6 DUP2 DUP6 PUSH3 0x2A6 JUMP JUMPDEST SWAP4 POP PUSH3 0x308 DUP2 DUP6 PUSH1 0x20 DUP7 ADD PUSH3 0x2B1 JUMP JUMPDEST DUP1 DUP5 ADD SWAP2 POP POP SWAP3 SWAP2 POP POP JUMP JUMPDEST PUSH1 0x0 PUSH3 0x322 DUP3 DUP5 PUSH3 0x2DD JUMP JUMPDEST SWAP2 POP DUP2 SWAP1 POP SWAP3 SWAP2 POP POP JUMP JUMPDEST PUSH1 0x0 DUP1 REVERT JUMPDEST PUSH1 0x0 DUP2 SWAP1 POP SWAP2 SWAP1 POP JUMP JUMPDEST PUSH3 0x347 DUP2 PUSH3 0x332 JUMP JUMPDEST DUP2 EQ PUSH3 0x353 JUMPI PUSH1 0x0 DUP1 REVERT JUMPDEST POP JUMP JUMPDEST PUSH1 0x0 DUP2 MLOAD SWAP1 POP PUSH3 0x367 DUP2 PUSH3 0x33C JUMP JUMPDEST SWAP3 SWAP2 POP POP JUMP JUMPDEST PUSH1 0x0 PUSH1 0x20 DUP3 DUP5 SUB SLT ISZERO PUSH3 0x386 JUMPI PUSH3 0x385 PUSH3 0x32D JUMP JUMPDEST JUMPDEST PUSH1 0x0 PUSH3 0x396 DUP5 DUP3 DUP6 ADD PUSH3 0x356 JUMP JUMPDEST SWAP2 POP POP SWAP3 SWAP2 POP POP JUMP JUMPDEST PUSH1 0x0 DUP3 DUP3 MSTORE PUSH1 0x20 DUP3 ADD SWAP1 POP SWAP3 SWAP2 POP POP JUMP JUMPDEST PUSH32 0x48656C6C6F000000000000000000000000000000000000000000000000000000 PUSH1 0x0 DUP3 ADD MSTORE POP JUMP JUMPDEST PUSH1 0x0 PUSH3 0x3E8 PUSH1 0x5 DUP4 PUSH3 0x39F JUMP JUMPDEST SWAP2 POP PUSH3 0x3F5 DUP3 PUSH3 0x3B0 JUMP JUMPDEST PUSH1 0x20 DUP3 ADD SWAP1 POP SWAP2 SWAP1 POP JUMP JUMPDEST PUSH1 0x0 DUP2 SWAP1 POP SWAP2 SWAP1 POP JUMP JUMPDEST PUSH1 0x0 PUSH1 0xFF DUP3 AND SWAP1 POP SWAP2 SWAP1 POP JUMP JUMPDEST PUSH1 0x0 DUP2 SWAP1 POP SWAP2 SWAP1 POP JUMP JUMPDEST PUSH1 0x0 PUSH3 0x442 PUSH3 0x43C PUSH3 0x436 DUP5 PUSH3 0x400 JUMP JUMPDEST PUSH3 0x417 JUMP JUMPDEST PUSH3 0x40A JUMP JUMPDEST SWAP1 POP SWAP2 SWAP1 POP JUMP JUMPDEST PUSH3 0x454 DUP2 PUSH3 0x421 JUMP JUMPDEST DUP3 MSTORE POP POP JUMP JUMPDEST PUSH1 0x0 PUSH1 0x40 DUP3 ADD SWAP1 POP DUP2 DUP2 SUB PUSH1 0x0 DUP4 ADD MSTORE PUSH3 0x475 DUP2 PUSH3 0x3D9 JUMP JUMPDEST SWAP1 POP PUSH3 0x486 PUSH1 0x20 DUP4 ADD DUP5 PUSH3 0x449 JUMP JUMPDEST SWAP3 SWAP2 POP POP JUMP JUMPDEST PUSH32 0x4E487B7100000000000000000000000000000000000000000000000000000000 PUSH1 0x0 MSTORE PUSH1 0x41 PUSH1 0x4 MSTORE PUSH1 0x24 PUSH1 0x0 REVERT JUMPDEST PUSH32 0x4E487B7100000000000000000000000000000000000000000000000000000000 PUSH1 0x0 MSTORE PUSH1 0x22 PUSH1 0x4 MSTORE PUSH1 0x24 PUSH1 0x0 REVERT JUMPDEST PUSH1 0x0 PUSH1 0x2 DUP3 DIV SWAP1 POP PUSH1 0x1 DUP3 AND DUP1 PUSH3 0x503 JUMPI PUSH1 0x7F DUP3 AND SWAP2 POP JUMPDEST PUSH1 0x20 DUP3 LT DUP2 SUB PUSH3 0x519 JUMPI PUSH3 0x518 PUSH3 0x4BB JUMP JUMPDEST JUMPDEST POP SWAP2 SWAP1 POP JUMP JUMPDEST PUSH1 0x0 DUP2 SWAP1 POP DUP2 PUSH1 0x0 MSTORE PUSH1 0x20 PUSH1 0x0 KECCAK256 SWAP1 POP SWAP2 SWAP1 POP JUMP JUMPDEST PUSH1 0x0 PUSH1 0x20 PUSH1 0x1F DUP4 ADD DIV SWAP1 POP SWAP2 SWAP1 POP JUMP JUMPDEST PUSH1 0x0 DUP3 DUP3 SHL SWAP1 POP SWAP3 SWAP2 POP POP JUMP JUMPDEST PUSH1 0x0 PUSH1 0x8 DUP4 MUL PUSH3 0x583 PUSH32 0xFFFFFFFFFFFFFFFFFFFFFFFFFFFFFFFFFFFFFFFFFFFFFFFFFFFFFFFFFFFFFFFF DUP3 PUSH3 0x544 JUMP JUMPDEST PUSH3 0x58F DUP7 DUP4 PUSH3 0x544 JUMP JUMPDEST SWAP6 POP DUP1 NOT DUP5 AND SWAP4 POP DUP1 DUP7 AND DUP5 OR SWAP3 POP POP POP SWAP4 SWAP3 POP POP POP JUMP JUMPDEST PUSH1 0x0 DUP2 SWAP1 POP SWAP2 SWAP1 POP JUMP JUMPDEST PUSH1 0x0 PUSH3 0x5D2 PUSH3 0x5CC PUSH3 0x5C6 DUP5 PUSH3 0x5A7 JUMP JUMPDEST PUSH3 0x417 JUMP JUMPDEST PUSH3 0x5A7 JUMP JUMPDEST SWAP1 POP SWAP2 SWAP1 POP JUMP JUMPDEST PUSH1 0x0 DUP2 SWAP1 POP SWAP2 SWAP1 POP JUMP JUMPDEST PUSH3 0x5EE DUP4 PUSH3 0x5B1 JUMP JUMPDEST PUSH3 0x606 PUSH3 0x5FD DUP3 PUSH3 0x5D9 JUMP JUMPDEST DUP5 DUP5 SLOAD PUSH3 0x551 JUMP JUMPDEST DUP3 SSTORE POP POP POP POP JUMP JUMPDEST PUSH1 0x0 SWAP1 JUMP JUMPDEST PUSH3 0x61D PUSH3 0x60E JUMP JUMPDEST PUSH3 0x62A DUP2 DUP5 DUP5 PUSH3 0x5E3 JUMP JUMPDEST POP POP POP JUMP JUMPDEST JUMPDEST DUP2 DUP2 LT ISZERO PUSH3 0x652 JUMPI PUSH3 0x646 PUSH1 0x0 DUP3 PUSH3 0x613 JUMP JUMPDEST PUSH1 0x1 DUP2 ADD SWAP1 POP PUSH3 0x630 JUMP JUMPDEST POP POP JUMP JUMPDEST PUSH1 0x1F DUP3 GT ISZERO PUSH3 0x6A1 JUMPI PUSH3 0x66B DUP2 PUSH3 0x51F JUMP JUMPDEST PUSH3 0x676 DUP5 PUSH3 0x534 JUMP JUMPDEST DUP2 ADD PUSH1 0x20 DUP6 LT ISZERO PUSH3 0x686 JUMPI DUP2 SWAP1 POP JUMPDEST PUSH3 0x69E PUSH3 0x695 DUP6 PUSH3 0x534 JUMP JUMPDEST DUP4 ADD DUP3 PUSH3 0x62F JUMP JUMPDEST POP POP JUMPDEST POP POP POP JUMP JUMPDEST PUSH1 0x0 DUP3 DUP3 SHR SWAP1 POP SWAP3 SWAP2 POP POP JUMP JUMPDEST PUSH1 0x0 PUSH3 0x6C6 PUSH1 0x0 NOT DUP5 PUSH1 0x8 MUL PUSH3 0x6A6 JUMP JUMPDEST NOT DUP1 DUP4 AND SWAP2 POP POP SWAP3 SWAP2 POP POP JUMP JUMPDEST PUSH1 0x0 PUSH3 0x6E1 DUP4 DUP4 PUSH3 0x6B3 JUMP JUMPDEST SWAP2 POP DUP3 PUSH1 0x2 MUL DUP3 OR SWAP1 POP SWAP3 SWAP2 POP POP JUMP JUMPDEST PUSH3 0x6FC DUP3 PUSH3 0x29B JUMP JUMPDEST PUSH8 0xFFFFFFFFFFFFFFFF DUP2 GT ISZERO PUSH3 0x718 JUMPI PUSH3 0x717 PUSH3 0x48C JUMP JUMPDEST JUMPDEST PUSH3 0x724 DUP3 SLOAD PUSH3 0x4EA JUMP JUMPDEST PUSH3 0x731 DUP3 DUP3 DUP6 PUSH3 0x656 JUMP JUMPDEST PUSH1 0x0 PUSH1 0x20 SWAP1 POP PUSH1 0x1F DUP4 GT PUSH1 0x1 DUP2 EQ PUSH3 0x769 JUMPI PUSH1 0x0 DUP5 ISZERO PUSH3 0x754 JUMPI DUP3 DUP8 ADD MLOAD SWAP1 POP JUMPDEST PUSH3 0x760 DUP6 DUP3 PUSH3 0x6D3 JUMP JUMPDEST DUP7 SSTORE POP PUSH3 0x7D0 JUMP JUMPDEST PUSH1 0x1F NOT DUP5 AND PUSH3 0x779 DUP7 PUSH3 0x51F JUMP JUMPDEST PUSH1 0x0 JUMPDEST DUP3 DUP2 LT ISZERO PUSH3 0x7A3 JUMPI DUP5 DUP10 ADD MLOAD DUP3 SSTORE PUSH1 0x1 DUP3 ADD SWAP2 POP PUSH1 0x20 DUP6 ADD SWAP5 POP PUSH1 0x20 DUP2 ADD SWAP1 POP PUSH3 0x77C JUMP JUMPDEST DUP7 DUP4 LT ISZERO PUSH3 0x7C3 JUMPI DUP5 DUP10 ADD MLOAD PUSH3 0x7BF PUSH1 0x1F DUP10 AND DUP3 PUSH3 0x6B3 JUMP JUMPDEST DUP4 SSTORE POP JUMPDEST PUSH1 0x1 PUSH1 0x2 DUP9 MUL ADD DUP9 SSTORE POP POP POP JUMPDEST POP POP POP POP POP POP JUMP JUMPDEST PUSH1 0x0 PUSH3 0x7E7 PUSH1 0x5 DUP4 PUSH3 0x229 JUMP JUMPDEST SWAP2 POP PUSH3 0x7F4 DUP3 PUSH3 0x3B0 JUMP JUMPDEST PUSH1 0x5 DUP3 ADD SWAP1 POP SWAP2 SWAP1 POP JUMP JUMPDEST PUSH32 0x776F726C64210000000000000000000000000000000000000000000000000000 PUSH1 0x0 DUP3 ADD MSTORE POP JUMP JUMPDEST PUSH1 0x0 PUSH3 0x837 PUSH1 0x6 DUP4 PUSH3 0x229 JUMP JUMPDEST SWAP2 POP PUSH3 0x844 DUP3 PUSH3 0x7FF JUMP JUMPDEST PUSH1 0x6 DUP3 ADD SWAP1 POP SWAP2 SWAP1 POP JUMP JUMPDEST PUSH1 0x0 PUSH3 0x85C DUP3 PUSH3 0x7D8 JUMP JUMPDEST SWAP2 POP PUSH3 0x869 DUP3 PUSH3 0x828 JUMP JUMPDEST SWAP2 POP DUP2 SWAP1 POP SWAP2 SWAP1 POP JUMP JUMPDEST PUSH32 0x4E487B7100000000000000000000000000000000000000000000000000000000 PUSH1 0x0 MSTORE PUSH1 0x11 PUSH1 0x4 MSTORE PUSH1 0x24 PUSH1 0x0 REVERT JUMPDEST PUSH1 0x0 PUSH3 0x8AF DUP3 PUSH3 0x5A7 JUMP JUMPDEST SWAP2 POP PUSH3 0x8BC DUP4 PUSH3 0x5A7 JUMP JUMPDEST SWAP3 POP DUP3 DUP3 SUB SWAP1 POP DUP2 DUP2 GT ISZERO PUSH3 0x8D7 JUMPI PUSH3 0x8D6 PUSH3 0x873 JUMP JUMPDEST JUMPDEST SWAP3 SWAP2 POP POP JUMP JUMPDEST PUSH1 0x0 PUSH1 0x20 DUP3 ADD SWAP1 POP PUSH3 0x8F4 PUSH1 0x0 DUP4 ADD DUP5 PUSH3 0x449 JUMP JUMPDEST SWAP3 SWAP2 POP POP JUMP JUMPDEST PUSH2 0xA46 DUP1 PUSH3 0x90A PUSH1 0x0 CODECOPY PUSH1 0x0 RETURN INVALID PUSH1 0x80 PUSH1 0x40 MSTORE CALLVALUE DUP1 ISZERO PUSH2 0x10 JUMPI PUSH1 0x0 DUP1 REVERT JUMPDEST POP PUSH1 0x4 CALLDATASIZE LT PUSH2 0xA9 JUMPI PUSH1 0x0 CALLDATALOAD PUSH1 0xE0 SHR DUP1 PUSH4 0x83197EF0 GT PUSH2 0x71 JUMPI DUP1 PUSH4 0x83197EF0 EQ PUSH2 0x156 JUMPI DUP1 PUSH4 0x8428CF83 EQ PUSH2 0x160 JUMPI DUP1 PUSH4 0x8E71732B EQ PUSH2 0x190 JUMPI DUP1 PUSH4 0x8FD6805C EQ PUSH2 0x1AC JUMPI DUP1 PUSH4 0x97A0DFB6 EQ PUSH2 0x1B6 JUMPI DUP1 PUSH4 0x9812C2BB EQ PUSH2 0x1E6 JUMPI PUSH2 0xA9 JUMP JUMPDEST DUP1 PUSH4 0x9BD5A60 EQ PUSH2 0xAE JUMPI DUP1 PUSH4 0x10BC3C75 EQ PUSH2 0xCC JUMPI DUP1 PUSH4 0x447A06F5 EQ PUSH2 0xEA JUMPI DUP1 PUSH4 0x50628C96 EQ PUSH2 0x11C JUMPI DUP1 PUSH4 0x7781DEBA EQ PUSH2 0x138 JUMPI JUMPDEST PUSH1 0x0 DUP1 REVERT JUMPDEST PUSH2 0xB6 PUSH2 0x216 JUMP JUMPDEST PUSH1 0x40 MLOAD PUSH2 0xC3 SWAP2 SWAP1 PUSH2 0x3A0 JUMP JUMPDEST PUSH1 0x40 MLOAD DUP1 SWAP2 SUB SWAP1 RETURN JUMPDEST PUSH2 0xD4 PUSH2 0x21C JUMP JUMPDEST PUSH1 0x40 MLOAD PUSH2 0xE1 SWAP2 SWAP1 PUSH2 0x3FC JUMP JUMPDEST PUSH1 0x40 MLOAD DUP1 SWAP2 SUB SWAP1 RETURN JUMPDEST PUSH2 0x104 PUSH1 0x4 DUP1 CALLDATASIZE SUB DUP2 ADD SWAP1 PUSH2 0xFF SWAP2 SWAP1 PUSH2 0x571 JUMP JUMPDEST PUSH2 0x224 JUMP JUMPDEST PUSH1 0x40 MLOAD PUSH2 0x113 SWAP4 SWAP3 SWAP2 SWAP1 PUSH2 0x5D3 JUMP JUMPDEST PUSH1 0x40 MLOAD DUP1 SWAP2 SUB SWAP1 RETURN JUMPDEST PUSH2 0x136 PUSH1 0x4 DUP1 CALLDATASIZE SUB DUP2 ADD SWAP1 PUSH2 0x131 SWAP2 SWAP1 PUSH2 0x636 JUMP JUMPDEST PUSH2 0x25A JUMP JUMPDEST STOP JUMPDEST PUSH2 0x140 PUSH2 0x2A0 JUMP JUMPDEST PUSH1 0x40 MLOAD PUSH2 0x14D SWAP2 SWAP1 PUSH2 0x3A0 JUMP JUMPDEST PUSH1 0x40 MLOAD DUP1 SWAP2 SUB SWAP1 RETURN JUMPDEST PUSH2 0x15E PUSH2 0x2A6 JUMP JUMPDEST STOP JUMPDEST PUSH2 0x17A PUSH1 0x4 DUP1 CALLDATASIZE SUB DUP2 ADD SWAP1 PUSH2 0x175 SWAP2 SWAP1 PUSH2 0x6C8 JUMP JUMPDEST PUSH2 0x2BF JUMP JUMPDEST PUSH1 0x40 MLOAD PUSH2 0x187 SWAP2 SWAP1 PUSH2 0x3FC JUMP JUMPDEST PUSH1 0x40 MLOAD DUP1 SWAP2 SUB SWAP1 RETURN JUMPDEST PUSH2 0x1AA PUSH1 0x4 DUP1 CALLDATASIZE SUB DUP2 ADD SWAP1 PUSH2 0x1A5 SWAP2 SWAP1 PUSH2 0x636 JUMP JUMPDEST PUSH2 0x31A JUMP JUMPDEST STOP JUMPDEST PUSH2 0x1B4 PUSH2 0x32E JUMP JUMPDEST STOP JUMPDEST PUSH2 0x1D0 PUSH1 0x4 DUP1 CALLDATASIZE SUB DUP2 ADD SWAP1 PUSH2 0x1CB SWAP2 SWAP1 PUSH2 0x72F JUMP JUMPDEST PUSH2 0x34D JUMP JUMPDEST PUSH1 0x40 MLOAD PUSH2 0x1DD SWAP2 SWAP1 PUSH2 0x782 JUMP JUMPDEST PUSH1 0x40 MLOAD DUP1 SWAP2 SUB SWAP1 RETURN JUMPDEST PUSH2 0x200 PUSH1 0x4 DUP1 CALLDATASIZE SUB DUP2 ADD SWAP1 PUSH2 0x1FB SWAP2 SWAP1 PUSH2 0x72F JUMP JUMPDEST PUSH2 0x36A JUMP JUMPDEST PUSH1 0x40 MLOAD PUSH2 0x20D SWAP2 SWAP1 PUSH2 0x782 JUMP JUMPDEST PUSH1 0x40 MLOAD DUP1 SWAP2 SUB SWAP1 RETURN JUMPDEST PUSH1 0x0 SLOAD DUP2 JUMP JUMPDEST PUSH1 0x0 COINBASE SWAP1 POP SWAP1 JUMP JUMPDEST PUSH1 0x0 DUP1 PUSH1 0x0 DUP1 PUSH1 0x0 DUP1 DUP7 DUP1 PUSH1 0x20 ADD SWAP1 MLOAD DUP2 ADD SWAP1 PUSH2 0x241 SWAP2 SWAP1 PUSH2 0x805 JUMP JUMPDEST SWAP3 POP SWAP3 POP SWAP3 POP DUP3 DUP3 DUP3 SWAP6 POP SWAP6 POP SWAP6 POP POP POP POP SWAP2 SWAP4 SWAP1 SWAP3 POP JUMP JUMPDEST PUSH1 0x0 DUP2 GT PUSH2 0x29D JUMPI PUSH1 0x40 MLOAD PUSH32 0x8C379A000000000000000000000000000000000000000000000000000000000 DUP2 MSTORE PUSH1 0x4 ADD PUSH2 0x294 SWAP1 PUSH2 0x8DB JUMP JUMPDEST PUSH1 0x40 MLOAD DUP1 SWAP2 SUB SWAP1 REVERT JUMPDEST POP JUMP JUMPDEST PUSH1 0x1 SLOAD DUP2 JUMP JUMPDEST CALLER PUSH20 0xFFFFFFFFFFFFFFFFFFFFFFFFFFFFFFFFFFFFFFFF AND SELFDESTRUCT JUMPDEST PUSH1 0x0 PUSH1 0x1 DUP6 DUP6 DUP6 DUP6 PUSH1 0x40 MLOAD PUSH1 0x0 DUP2 MSTORE PUSH1 0x20 ADD PUSH1 0x40 MSTORE PUSH1 0x40 MLOAD PUSH2 0x2E4 SWAP5 SWAP4 SWAP3 SWAP2 SWAP1 PUSH2 0x90A JUMP JUMPDEST PUSH1 0x20 PUSH1 0x40 MLOAD PUSH1 0x20 DUP2 SUB SWAP1 DUP1 DUP5 SUB SWAP1 DUP6 GAS STATICCALL ISZERO DUP1 ISZERO PUSH2 0x306 JUMPI RETURNDATASIZE PUSH1 0x0 DUP1 RETURNDATACOPY RETURNDATASIZE PUSH1 0x0 REVERT JUMPDEST POP POP POP PUSH1 0x20 PUSH1 0x40 MLOAD SUB MLOAD SWAP1 POP SWAP5 SWAP4 POP POP POP POP JUMP JUMPDEST PUSH1 0x0 DUP2 GT PUSH2 0x32B JUMPI PUSH2 0x32A PUSH2 0x94F JUMP JUMPDEST JUMPDEST POP JUMP JUMPDEST PUSH1 0x0 GAS SWAP1 POP PUSH1 0x0 GAS SWAP1 POP PUSH1 0x0 DUP2 DUP4 PUSH2 0x346 SWAP2 SWAP1 PUSH2 0x9AD JUMP JUMPDEST SWAP1 POP POP POP POP JUMP JUMPDEST PUSH1 0x0 DUP2 DUP1 PUSH2 0x35E JUMPI PUSH2 0x35D PUSH2 0x9E1 JUMP JUMPDEST JUMPDEST DUP4 DUP6 MULMOD SWAP1 POP SWAP4 SWAP3 POP POP POP JUMP JUMPDEST PUSH1 0x0 DUP2 DUP1 PUSH2 0x37B JUMPI PUSH2 0x37A PUSH2 0x9E1 JUMP JUMPDEST JUMPDEST DUP4 DUP6 ADDMOD SWAP1 POP SWAP4 SWAP3 POP POP POP JUMP JUMPDEST PUSH1 0x0 DUP2 SWAP1 POP SWAP2 SWAP1 POP JUMP JUMPDEST PUSH2 0x39A DUP2 PUSH2 0x387 JUMP JUMPDEST DUP3 MSTORE POP POP JUMP JUMPDEST PUSH1 0x0 PUSH1 0x20 DUP3 ADD SWAP1 POP PUSH2 0x3B5 PUSH1 0x0 DUP4 ADD DUP5 PUSH2 0x391 JUMP JUMPDEST SWAP3 SWAP2 POP POP JUMP JUMPDEST PUSH1 0x0 PUSH20 0xFFFFFFFFFFFFFFFFFFFFFFFFFFFFFFFFFFFFFFFF DUP3 AND SWAP1 POP SWAP2 SWAP1 POP JUMP JUMPDEST PUSH1 0x0 PUSH2 0x3E6 DUP3 PUSH2 0x3BB JUMP JUMPDEST SWAP1 POP SWAP2 SWAP1 POP JUMP JUMPDEST PUSH2 0x3F6 DUP2 PUSH2 0x3DB JUMP JUMPDEST DUP3 MSTORE POP POP JUMP JUMPDEST PUSH1 0x0 PUSH1 0x20 DUP3 ADD SWAP1 POP PUSH2 0x411 PUSH1 0x0 DUP4 ADD DUP5 PUSH2 0x3ED JUMP JUMPDEST SWAP3 SWAP2 POP POP JUMP JUMPDEST PUSH1 0x0 PUSH1 0x40 MLOAD SWAP1 POP SWAP1 JUMP JUMPDEST PUSH1 0x0 DUP1 REVERT JUMPDEST PUSH1 0x0 DUP1 REVERT JUMPDEST PUSH1 0x0 DUP1 REVERT JUMPDEST PUSH1 0x0 DUP1 REVERT JUMPDEST PUSH1 0x0 PUSH1 0x1F NOT PUSH1 0x1F DUP4 ADD AND SWAP1 POP SWAP2 SWAP1 POP JUMP JUMPDEST PUSH32 0x4E487B7100000000000000000000000000000000000000000000000000000000 PUSH1 0x0 MSTORE PUSH1 0x41 PUSH1 0x4 MSTORE PUSH1 0x24 PUSH1 0x0 REVERT JUMPDEST PUSH2 0x47E DUP3 PUSH2 0x435 JUMP JUMPDEST DUP2 ADD DUP2 DUP2 LT PUSH8 0xFFFFFFFFFFFFFFFF DUP3 GT OR ISZERO PUSH2 0x49D JUMPI PUSH2 0x49C PUSH2 0x446 JUMP JUMPDEST JUMPDEST DUP1 PUSH1 0x40 MSTORE POP POP POP JUMP JUMPDEST PUSH1 0x0 PUSH2 0x4B0 PUSH2 0x417 JUMP JUMPDEST SWAP1 POP PUSH2 0x4BC DUP3 DUP3 PUSH2 0x475 JUMP JUMPDEST SWAP2 SWAP1 POP JUMP JUMPDEST PUSH1 0x0 PUSH8 0xFFFFFFFFFFFFFFFF DUP3 GT ISZERO PUSH2 0x4DC JUMPI PUSH2 0x4DB PUSH2 0x446 JUMP JUMPDEST JUMPDEST PUSH2 0x4E5 DUP3 PUSH2 0x435 JUMP JUMPDEST SWAP1 POP PUSH1 0x20 DUP2 ADD SWAP1 POP SWAP2 SWAP1 POP JUMP JUMPDEST DUP3 DUP2 DUP4 CALLDATACOPY PUSH1 0x0 DUP4 DUP4 ADD MSTORE POP POP POP JUMP JUMPDEST PUSH1 0x0 PUSH2 0x514 PUSH2 0x50F DUP5 PUSH2 0x4C1 JUMP JUMPDEST PUSH2 0x4A6 JUMP JUMPDEST SWAP1 POP DUP3 DUP2 MSTORE PUSH1 0x20 DUP2 ADD DUP5 DUP5 DUP5 ADD GT ISZERO PUSH2 0x530 JUMPI PUSH2 0x52F PUSH2 0x430 JUMP JUMPDEST JUMPDEST PUSH2 0x53B DUP5 DUP3 DUP6 PUSH2 0x4F2 JUMP JUMPDEST POP SWAP4 SWAP3 POP POP POP JUMP JUMPDEST PUSH1 0x0 DUP3 PUSH1 0x1F DUP4 ADD SLT PUSH2 0x558 JUMPI PUSH2 0x557 PUSH2 0x42B JUMP JUMPDEST JUMPDEST DUP2 CALLDATALOAD PUSH2 0x568 DUP5 DUP3 PUSH1 0x20 DUP7 ADD PUSH2 0x501 JUMP JUMPDEST SWAP2 POP POP SWAP3 SWAP2 POP POP JUMP JUMPDEST PUSH1 0x0 PUSH1 0x20 DUP3 DUP5 SUB SLT ISZERO PUSH2 0x587 JUMPI PUSH2 0x586 PUSH2 0x421 JUMP JUMPDEST JUMPDEST PUSH1 0x0 DUP3 ADD CALLDATALOAD PUSH8 0xFFFFFFFFFFFFFFFF DUP2 GT ISZERO PUSH2 0x5A5 JUMPI PUSH2 0x5A4 PUSH2 0x426 JUMP JUMPDEST JUMPDEST PUSH2 0x5B1 DUP5 DUP3 DUP6 ADD PUSH2 0x543 JUMP JUMPDEST SWAP2 POP POP SWAP3 SWAP2 POP POP JUMP JUMPDEST PUSH1 0x0 DUP2 SWAP1 POP SWAP2 SWAP1 POP JUMP JUMPDEST PUSH2 0x5CD DUP2 PUSH2 0x5BA JUMP JUMPDEST DUP3 MSTORE POP POP JUMP JUMPDEST PUSH1 0x0 PUSH1 0x60 DUP3 ADD SWAP1 POP PUSH2 0x5E8 PUSH1 0x0 DUP4 ADD DUP7 PUSH2 0x5C4 JUMP JUMPDEST PUSH2 0x5F5 PUSH1 0x20 DUP4 ADD DUP6 PUSH2 0x3ED JUMP JUMPDEST PUSH2 0x602 PUSH1 0x40 DUP4 ADD DUP5 PUSH2 0x391 JUMP JUMPDEST SWAP5 SWAP4 POP POP POP POP JUMP JUMPDEST PUSH2 0x613 DUP2 PUSH2 0x5BA JUMP JUMPDEST DUP2 EQ PUSH2 0x61E JUMPI PUSH1 0x0 DUP1 REVERT JUMPDEST POP JUMP JUMPDEST PUSH1 0x0 DUP2 CALLDATALOAD SWAP1 POP PUSH2 0x630 DUP2 PUSH2 0x60A JUMP JUMPDEST SWAP3 SWAP2 POP POP JUMP JUMPDEST PUSH1 0x0 PUSH1 0x20 DUP3 DUP5 SUB SLT ISZERO PUSH2 0x64C JUMPI PUSH2 0x64B PUSH2 0x421 JUMP JUMPDEST JUMPDEST PUSH1 0x0 PUSH2 0x65A DUP5 DUP3 DUP6 ADD PUSH2 0x621 JUMP JUMPDEST SWAP2 POP POP SWAP3 SWAP2 POP POP JUMP JUMPDEST PUSH2 0x66C DUP2 PUSH2 0x387 JUMP JUMPDEST DUP2 EQ PUSH2 0x677 JUMPI PUSH1 0x0 DUP1 REVERT JUMPDEST POP JUMP JUMPDEST PUSH1 0x0 DUP2 CALLDATALOAD SWAP1 POP PUSH2 0x689 DUP2 PUSH2 0x663 JUMP JUMPDEST SWAP3 SWAP2 POP POP JUMP JUMPDEST PUSH1 0x0 PUSH1 0xFF DUP3 AND SWAP1 POP SWAP2 SWAP1 POP JUMP JUMPDEST PUSH2 0x6A5 DUP2 PUSH2 0x68F JUMP JUMPDEST DUP2 EQ PUSH2 0x6B0 JUMPI PUSH1 0x0 DUP1 REVERT JUMPDEST POP JUMP JUMPDEST PUSH1 0x0 DUP2 CALLDATALOAD SWAP1 POP PUSH2 0x6C2 DUP2 PUSH2 0x69C JUMP JUMPDEST SWAP3 SWAP2 POP POP JUMP JUMPDEST PUSH1 0x0 DUP1 PUSH1 0x0 DUP1 PUSH1 0x80 DUP6 DUP8 SUB SLT ISZERO PUSH2 0x6E2 JUMPI PUSH2 0x6E1 PUSH2 0x421 JUMP JUMPDEST JUMPDEST PUSH1 0x0 PUSH2 0x6F0 DUP8 DUP3 DUP9 ADD PUSH2 0x67A JUMP JUMPDEST SWAP5 POP POP PUSH1 0x20 PUSH2 0x701 DUP8 DUP3 DUP9 ADD PUSH2 0x6B3 JUMP JUMPDEST SWAP4 POP POP PUSH1 0x40 PUSH2 0x712 DUP8 DUP3 DUP9 ADD PUSH2 0x67A JUMP JUMPDEST SWAP3 POP POP PUSH1 0x60 PUSH2 0x723 DUP8 DUP3 DUP9 ADD PUSH2 0x67A JUMP JUMPDEST SWAP2 POP POP SWAP3 SWAP6 SWAP2 SWAP5 POP SWAP3 POP JUMP JUMPDEST PUSH1 0x0 DUP1 PUSH1 0x0 PUSH1 0x60 DUP5 DUP7 SUB SLT ISZERO PUSH2 0x748 JUMPI PUSH2 0x747 PUSH2 0x421 JUMP JUMPDEST JUMPDEST PUSH1 0x0 PUSH2 0x756 DUP7 DUP3 DUP8 ADD PUSH2 0x621 JUMP JUMPDEST SWAP4 POP POP PUSH1 0x20 PUSH2 0x767 DUP7 DUP3 DUP8 ADD PUSH2 0x621 JUMP JUMPDEST SWAP3 POP POP PUSH1 0x40 PUSH2 0x778 DUP7 DUP3 DUP8 ADD PUSH2 0x621 JUMP JUMPDEST SWAP2 POP POP SWAP3 POP SWAP3 POP SWAP3 JUMP JUMPDEST PUSH1 0x0 PUSH1 0x20 DUP3 ADD SWAP1 POP PUSH2 0x797 PUSH1 0x0 DUP4 ADD DUP5 PUSH2 0x5C4 JUMP JUMPDEST SWAP3 SWAP2 POP POP JUMP JUMPDEST PUSH1 0x0 DUP2 MLOAD SWAP1 POP PUSH2 0x7AC DUP2 PUSH2 0x60A JUMP JUMPDEST SWAP3 SWAP2 POP POP JUMP JUMPDEST PUSH1 0x0 PUSH2 0x7BD DUP3 PUSH2 0x3BB JUMP JUMPDEST SWAP1 POP SWAP2 SWAP1 POP JUMP JUMPDEST PUSH2 0x7CD DUP2 PUSH2 0x7B2 JUMP JUMPDEST DUP2 EQ PUSH2 0x7D8 JUMPI PUSH1 0x0 DUP1 REVERT JUMPDEST POP JUMP JUMPDEST PUSH1 0x0 DUP2 MLOAD SWAP1 POP PUSH2 0x7EA DUP2 PUSH2 0x7C4 JUMP JUMPDEST SWAP3 SWAP2 POP POP JUMP JUMPDEST PUSH1 0x0 DUP2 MLOAD SWAP1 POP PUSH2 0x7FF DUP2 PUSH2 0x663 JUMP JUMPDEST SWAP3 SWAP2 POP POP JUMP JUMPDEST PUSH1 0x0 DUP1 PUSH1 0x0 PUSH1 0x60 DUP5 DUP7 SUB SLT ISZERO PUSH2 0x81E JUMPI PUSH2 0x81D PUSH2 0x421 JUMP JUMPDEST JUMPDEST PUSH1 0x0 PUSH2 0x82C DUP7 DUP3 DUP8 ADD PUSH2 0x79D JUMP JUMPDEST SWAP4 POP POP PUSH1 0x20 PUSH2 0x83D DUP7 DUP3 DUP8 ADD PUSH2 0x7DB JUMP JUMPDEST SWAP3 POP POP PUSH1 0x40 PUSH2 0x84E DUP7 DUP3 DUP8 ADD PUSH2 0x7F0 JUMP JUMPDEST SWAP2 POP POP SWAP3 POP SWAP3 POP SWAP3 JUMP JUMPDEST PUSH1 0x0 DUP3 DUP3 MSTORE PUSH1 0x20 DUP3 ADD SWAP1 POP SWAP3 SWAP2 POP POP JUMP JUMPDEST PUSH32 0x56616C7565206F662078206D7573742062652067726561746572207468616E20 PUSH1 0x0 DUP3 ADD MSTORE PUSH32 0x3000000000000000000000000000000000000000000000000000000000000000 PUSH1 0x20 DUP3 ADD MSTORE POP JUMP JUMPDEST PUSH1 0x0 PUSH2 0x8C5 PUSH1 0x21 DUP4 PUSH2 0x858 JUMP JUMPDEST SWAP2 POP PUSH2 0x8D0 DUP3 PUSH2 0x869 JUMP JUMPDEST PUSH1 0x40 DUP3 ADD SWAP1 POP SWAP2 SWAP1 POP JUMP JUMPDEST PUSH1 0x0 PUSH1 0x20 DUP3 ADD SWAP1 POP DUP2 DUP2 SUB PUSH1 0x0 DUP4 ADD MSTORE PUSH2 0x8F4 DUP2 PUSH2 0x8B8 JUMP JUMPDEST SWAP1 POP SWAP2 SWAP1 POP JUMP JUMPDEST PUSH2 0x904 DUP2 PUSH2 0x68F JUMP JUMPDEST DUP3 MSTORE POP POP JUMP JUMPDEST PUSH1 0x0 PUSH1 0x80 DUP3 ADD SWAP1 POP PUSH2 0x91F PUSH1 0x0 DUP4 ADD DUP8 PUSH2 0x391 JUMP JUMPDEST PUSH2 0x92C PUSH1 0x20 DUP4 ADD DUP7 PUSH2 0x8FB JUMP JUMPDEST PUSH2 0x939 PUSH1 0x40 DUP4 ADD DUP6 PUSH2 0x391 JUMP JUMPDEST PUSH2 0x946 PUSH1 0x60 DUP4 ADD DUP5 PUSH2 0x391 JUMP JUMPDEST SWAP6 SWAP5 POP POP POP POP POP JUMP JUMPDEST PUSH32 0x4E487B7100000000000000000000000000000000000000000000000000000000 PUSH1 0x0 MSTORE PUSH1 0x1 PUSH1 0x4 MSTORE PUSH1 0x24 PUSH1 0x0 REVERT JUMPDEST PUSH32 0x4E487B7100000000000000000000000000000000000000000000000000000000 PUSH1 0x0 MSTORE PUSH1 0x11 PUSH1 0x4 MSTORE PUSH1 0x24 PUSH1 0x0 REVERT JUMPDEST PUSH1 0x0 PUSH2 0x9B8 DUP3 PUSH2 0x5BA JUMP JUMPDEST SWAP2 POP PUSH2 0x9C3 DUP4 PUSH2 0x5BA JUMP JUMPDEST SWAP3 POP DUP3 DUP3 SUB SWAP1 POP DUP2 DUP2 GT ISZERO PUSH2 0x9DB JUMPI PUSH2 0x9DA PUSH2 0x97E JUMP JUMPDEST JUMPDEST SWAP3 SWAP2 POP POP JUMP JUMPDEST PUSH32 0x4E487B7100000000000000000000000000000000000000000000000000000000 PUSH1 0x0 MSTORE PUSH1 0x12 PUSH1 0x4 MSTORE PUSH1 0x24 PUSH1 0x0 REVERT INVALID LOG2 PUSH5 0x6970667358 0x22 SLT KECCAK256 0xD6 0xF9 0xF6 0xF9 DELEGATECALL 0xB3 0xFB 0x2F 0xAA GT 0x4B 0xA8 0xE8 0xDF 0xE8 EXTCODESIZE LOG1 CALLCODE 0x4C DUP12 0xC5 SWAP1 0x4C 0xEC 0xD4 PUSH10 0xBDE38473BE0864736F6C PUSH4 0x43000812 STOP CALLER "
				},
				"gasEstimates": {
					"creation": {
						"codeDepositCost": "526000",
						"executionCost": "infinite",
						"totalCost": "infinite"
					},
					"external": {
						"decodeData(bytes)": "infinite",
						"destroy()": "27743",
						"getCurrentMiner()": "408",
						"hash()": "2430",
						"hash256()": "2518",
						"myFunction(uint256)": "801",
						"myFunction1(uint256)": "500",
						"myFunction3()": "infinite",
						"myFunction5(uint256,uint256,uint256)": "infinite",
						"myFunction6(uint256,uint256,uint256)": "infinite",
						"recoverAddress(bytes32,uint8,bytes32,bytes32)": "infinite"
					}
				},
				"methodIdentifiers": {
					"decodeData(bytes)": "447a06f5",
					"destroy()": "83197ef0",
					"getCurrentMiner()": "10bc3c75",
					"hash()": "09bd5a60",
					"hash256()": "7781deba",
					"myFunction(uint256)": "50628c96",
					"myFunction1(uint256)": "8e71732b",
					"myFunction3()": "8fd6805c",
					"myFunction5(uint256,uint256,uint256)": "9812c2bb",
					"myFunction6(uint256,uint256,uint256)": "97a0dfb6",
					"recoverAddress(bytes32,uint8,bytes32,bytes32)": "8428cf83"
				}
			},
			"storageLayout": {
				"storage": [
					{
						"astId": 34,
						"contract": "assignment/Task16.sol:builtIn2",
						"label": "hash",
						"offset": 0,
						"slot": "0",
						"type": "t_bytes32"
					},
					{
						"astId": 42,
						"contract": "assignment/Task16.sol:builtIn2",
						"label": "hash256",
						"offset": 0,
						"slot": "1",
						"type": "t_bytes32"
					},
					{
						"astId": 120,
						"contract": "assignment/Task16.sol:builtIn2",
						"label": "myBytes12",
						"offset": 0,
						"slot": "2",
						"type": "t_bytes_storage"
					},
					{
						"astId": 129,
						"contract": "assignment/Task16.sol:builtIn2",
						"label": "hash22",
						"offset": 0,
						"slot": "3",
						"type": "t_bytes20"
					},
					{
						"astId": 190,
						"contract": "assignment/Task16.sol:builtIn2",
						"label": "hash45",
						"offset": 0,
						"slot": "4",
						"type": "t_bytes32"
					},
					{
						"astId": 211,
						"contract": "assignment/Task16.sol:builtIn2",
						"label": "myData",
						"offset": 0,
						"slot": "5",
						"type": "t_bytes_storage"
					}
				],
				"types": {
					"t_bytes20": {
						"encoding": "inplace",
						"label": "bytes20",
						"numberOfBytes": "20"
					},
					"t_bytes32": {
						"encoding": "inplace",
						"label": "bytes32",
						"numberOfBytes": "32"
					},
					"t_bytes_storage": {
						"encoding": "bytes",
						"label": "bytes",
						"numberOfBytes": "32"
					}
				}
			},
			"userdoc": {
				"kind": "user",
				"methods": {},
				"version": 1
			}
		}
	}
}